{
	"BCT/assign 2a/assign2a.sol": {
		"WavePortal": {
			"abi": [
				{
					"anonymous": false,
					"inputs": [
						{
							"indexed": true,
							"internalType": "address",
							"name": "sender",
							"type": "address"
						},
						{
							"indexed": false,
							"internalType": "string",
							"name": "message",
							"type": "string"
						}
					],
					"name": "NewWave",
					"type": "event"
				},
				{
					"inputs": [],
					"name": "getTotalWaves",
					"outputs": [
						{
							"internalType": "uint256",
							"name": "",
							"type": "uint256"
						}
					],
					"stateMutability": "view",
					"type": "function"
				},
				{
					"inputs": [],
					"name": "getWaves",
					"outputs": [
						{
							"components": [
								{
									"internalType": "address",
									"name": "sender",
									"type": "address"
								},
								{
									"internalType": "string",
									"name": "message",
									"type": "string"
								}
							],
							"internalType": "struct WavePortal.Wave[]",
							"name": "",
							"type": "tuple[]"
						}
					],
					"stateMutability": "view",
					"type": "function"
				},
				{
					"inputs": [
						{
							"internalType": "string",
							"name": "_message",
							"type": "string"
						}
					],
					"name": "wave",
					"outputs": [],
					"stateMutability": "nonpayable",
					"type": "function"
				}
			],
			"devdoc": {
				"kind": "dev",
				"methods": {},
				"version": 1
			},
			"evm": {
				"assembly": "    /* \"BCT/assign 2a/assign2a.sol\":57:627  contract WavePortal {... */\n  mstore(0x40, 0x80)\n  callvalue\n  dup1\n  iszero\n  tag_1\n  jumpi\n  0x00\n  dup1\n  revert\ntag_1:\n  pop\n  dataSize(sub_0)\n  dup1\n  dataOffset(sub_0)\n  0x00\n  codecopy\n  0x00\n  return\nstop\n\nsub_0: assembly {\n        /* \"BCT/assign 2a/assign2a.sol\":57:627  contract WavePortal {... */\n      mstore(0x40, 0x80)\n      callvalue\n      dup1\n      iszero\n      tag_1\n      jumpi\n      0x00\n      dup1\n      revert\n    tag_1:\n      pop\n      jumpi(tag_2, lt(calldatasize, 0x04))\n      shr(0xe0, calldataload(0x00))\n      dup1\n      0x449d46c0\n      eq\n      tag_3\n      jumpi\n      dup1\n      0x9a2cdc08\n      eq\n      tag_4\n      jumpi\n      dup1\n      0xa9d42f7e\n      eq\n      tag_5\n      jumpi\n    tag_2:\n      0x00\n      dup1\n      revert\n        /* \"BCT/assign 2a/assign2a.sol\":263:436  function wave(string memory _message) public {... */\n    tag_3:\n      tag_6\n      0x04\n      dup1\n      calldatasize\n      sub\n      dup2\n      add\n      swap1\n      tag_7\n      swap2\n      swap1\n      tag_8\n      jump\t// in\n    tag_7:\n      tag_9\n      jump\t// in\n    tag_6:\n      stop\n        /* \"BCT/assign 2a/assign2a.sol\":442:532  function getTotalWaves() public view returns(uint256) {... */\n    tag_4:\n      tag_10\n      tag_11\n      jump\t// in\n    tag_10:\n      mload(0x40)\n      tag_12\n      swap2\n      swap1\n      tag_13\n      jump\t// in\n    tag_12:\n      mload(0x40)\n      dup1\n      swap2\n      sub\n      swap1\n      return\n        /* \"BCT/assign 2a/assign2a.sol\":538:624  function getWaves() public view returns (Wave[] memory){... */\n    tag_5:\n      tag_14\n      tag_15\n      jump\t// in\n    tag_14:\n      mload(0x40)\n      tag_16\n      swap2\n      swap1\n      tag_17\n      jump\t// in\n    tag_16:\n      mload(0x40)\n      dup1\n      swap2\n      sub\n      swap1\n      return\n        /* \"BCT/assign 2a/assign2a.sol\":263:436  function wave(string memory _message) public {... */\n    tag_9:\n        /* \"BCT/assign 2a/assign2a.sol\":333:334  1 */\n      0x01\n        /* \"BCT/assign 2a/assign2a.sol\":319:329  totalWaves */\n      0x00\n      dup1\n        /* \"BCT/assign 2a/assign2a.sol\":319:334  totalWaves += 1 */\n      dup3\n      dup3\n      sload\n      tag_19\n      swap2\n      swap1\n      tag_20\n      jump\t// in\n    tag_19:\n      swap3\n      pop\n      pop\n      dup2\n      swap1\n      sstore\n      pop\n        /* \"BCT/assign 2a/assign2a.sol\":345:350  waves */\n      0x01\n        /* \"BCT/assign 2a/assign2a.sol\":356:382  Wave(msg.sender, _message) */\n      mload(0x40)\n      dup1\n      0x40\n      add\n      0x40\n      mstore\n      dup1\n        /* \"BCT/assign 2a/assign2a.sol\":361:371  msg.sender */\n      caller\n        /* \"BCT/assign 2a/assign2a.sol\":356:382  Wave(msg.sender, _message) */\n      0xffffffffffffffffffffffffffffffffffffffff\n      and\n      dup2\n      mstore\n      0x20\n      add\n        /* \"BCT/assign 2a/assign2a.sol\":373:381  _message */\n      dup4\n        /* \"BCT/assign 2a/assign2a.sol\":356:382  Wave(msg.sender, _message) */\n      dup2\n      mstore\n      pop\n        /* \"BCT/assign 2a/assign2a.sol\":345:383  waves.push(Wave(msg.sender, _message)) */\n      swap1\n      dup1\n      0x01\n      dup2\n      sload\n      add\n      dup1\n      dup3\n      sstore\n      dup1\n      swap2\n      pop\n      pop\n      0x01\n      swap1\n      sub\n      swap1\n      0x00\n      mstore\n      keccak256(0x00, 0x20)\n      swap1\n      0x02\n      mul\n      add\n      0x00\n      swap1\n      swap2\n      swap1\n      swap2\n      swap1\n      swap2\n      pop\n      0x00\n      dup3\n      add\n      mload\n      dup2\n      0x00\n      add\n      exp(0x0100, 0x00)\n      dup2\n      sload\n      dup2\n      0xffffffffffffffffffffffffffffffffffffffff\n      mul\n      not\n      and\n      swap1\n      dup4\n      0xffffffffffffffffffffffffffffffffffffffff\n      and\n      mul\n      or\n      swap1\n      sstore\n      pop\n      0x20\n      dup3\n      add\n      mload\n      dup2\n      0x01\n      add\n      swap1\n      dup2\n      tag_22\n      swap2\n      swap1\n      tag_23\n      jump\t// in\n    tag_22:\n      pop\n      pop\n      pop\n        /* \"BCT/assign 2a/assign2a.sol\":407:417  msg.sender */\n      caller\n        /* \"BCT/assign 2a/assign2a.sol\":399:428  NewWave(msg.sender, _message) */\n      0xffffffffffffffffffffffffffffffffffffffff\n      and\n      0xc8c0ec36e816f76593f2a64d116dc29d017ef338939501f124fa3c5d82de72bb\n        /* \"BCT/assign 2a/assign2a.sol\":419:427  _message */\n      dup3\n        /* \"BCT/assign 2a/assign2a.sol\":399:428  NewWave(msg.sender, _message) */\n      mload(0x40)\n      tag_24\n      swap2\n      swap1\n      tag_25\n      jump\t// in\n    tag_24:\n      mload(0x40)\n      dup1\n      swap2\n      sub\n      swap1\n      log2\n        /* \"BCT/assign 2a/assign2a.sol\":263:436  function wave(string memory _message) public {... */\n      pop\n      jump\t// out\n        /* \"BCT/assign 2a/assign2a.sol\":442:532  function getTotalWaves() public view returns(uint256) {... */\n    tag_11:\n        /* \"BCT/assign 2a/assign2a.sol\":487:494  uint256 */\n      0x00\n        /* \"BCT/assign 2a/assign2a.sol\":514:524  totalWaves */\n      dup1\n      sload\n        /* \"BCT/assign 2a/assign2a.sol\":507:524  return totalWaves */\n      swap1\n      pop\n        /* \"BCT/assign 2a/assign2a.sol\":442:532  function getTotalWaves() public view returns(uint256) {... */\n      swap1\n      jump\t// out\n        /* \"BCT/assign 2a/assign2a.sol\":538:624  function getWaves() public view returns (Wave[] memory){... */\n    tag_15:\n        /* \"BCT/assign 2a/assign2a.sol\":579:592  Wave[] memory */\n      0x60\n        /* \"BCT/assign 2a/assign2a.sol\":611:616  waves */\n      0x01\n        /* \"BCT/assign 2a/assign2a.sol\":604:616  return waves */\n      dup1\n      sload\n      dup1\n      0x20\n      mul\n      0x20\n      add\n      mload(0x40)\n      swap1\n      dup2\n      add\n      0x40\n      mstore\n      dup1\n      swap3\n      swap2\n      swap1\n      dup2\n      dup2\n      mstore\n      0x20\n      add\n      0x00\n      swap1\n    tag_28:\n      dup3\n      dup3\n      lt\n      iszero\n      tag_29\n      jumpi\n      dup4\n      dup3\n      swap1\n      0x00\n      mstore\n      keccak256(0x00, 0x20)\n      swap1\n      0x02\n      mul\n      add\n      mload(0x40)\n      dup1\n      0x40\n      add\n      0x40\n      mstore\n      swap1\n      dup2\n      0x00\n      dup3\n      add\n      0x00\n      swap1\n      sload\n      swap1\n      0x0100\n      exp\n      swap1\n      div\n      0xffffffffffffffffffffffffffffffffffffffff\n      and\n      0xffffffffffffffffffffffffffffffffffffffff\n      and\n      0xffffffffffffffffffffffffffffffffffffffff\n      and\n      dup2\n      mstore\n      0x20\n      add\n      0x01\n      dup3\n      add\n      dup1\n      sload\n      tag_31\n      swap1\n      tag_32\n      jump\t// in\n    tag_31:\n      dup1\n      0x1f\n      add\n      0x20\n      dup1\n      swap2\n      div\n      mul\n      0x20\n      add\n      mload(0x40)\n      swap1\n      dup2\n      add\n      0x40\n      mstore\n      dup1\n      swap3\n      swap2\n      swap1\n      dup2\n      dup2\n      mstore\n      0x20\n      add\n      dup3\n      dup1\n      sload\n      tag_33\n      swap1\n      tag_32\n      jump\t// in\n    tag_33:\n      dup1\n      iszero\n      tag_34\n      jumpi\n      dup1\n      0x1f\n      lt\n      tag_35\n      jumpi\n      0x0100\n      dup1\n      dup4\n      sload\n      div\n      mul\n      dup4\n      mstore\n      swap2\n      0x20\n      add\n      swap2\n      jump(tag_34)\n    tag_35:\n      dup3\n      add\n      swap2\n      swap1\n      0x00\n      mstore\n      keccak256(0x00, 0x20)\n      swap1\n    tag_36:\n      dup2\n      sload\n      dup2\n      mstore\n      swap1\n      0x01\n      add\n      swap1\n      0x20\n      add\n      dup1\n      dup4\n      gt\n      tag_36\n      jumpi\n      dup3\n      swap1\n      sub\n      0x1f\n      and\n      dup3\n      add\n      swap2\n    tag_34:\n      pop\n      pop\n      pop\n      pop\n      pop\n      dup2\n      mstore\n      pop\n      pop\n      dup2\n      mstore\n      0x20\n      add\n      swap1\n      0x01\n      add\n      swap1\n      jump(tag_28)\n    tag_29:\n      pop\n      pop\n      pop\n      pop\n      swap1\n      pop\n        /* \"BCT/assign 2a/assign2a.sol\":538:624  function getWaves() public view returns (Wave[] memory){... */\n      swap1\n      jump\t// out\n        /* \"#utility.yul\":7:82   */\n    tag_37:\n        /* \"#utility.yul\":40:46   */\n      0x00\n        /* \"#utility.yul\":73:75   */\n      0x40\n        /* \"#utility.yul\":67:76   */\n      mload\n        /* \"#utility.yul\":57:76   */\n      swap1\n      pop\n        /* \"#utility.yul\":7:82   */\n      swap1\n      jump\t// out\n        /* \"#utility.yul\":88:205   */\n    tag_38:\n        /* \"#utility.yul\":197:198   */\n      0x00\n        /* \"#utility.yul\":194:195   */\n      dup1\n        /* \"#utility.yul\":187:199   */\n      revert\n        /* \"#utility.yul\":211:328   */\n    tag_39:\n        /* \"#utility.yul\":320:321   */\n      0x00\n        /* \"#utility.yul\":317:318   */\n      dup1\n        /* \"#utility.yul\":310:322   */\n      revert\n        /* \"#utility.yul\":334:451   */\n    tag_40:\n        /* \"#utility.yul\":443:444   */\n      0x00\n        /* \"#utility.yul\":440:441   */\n      dup1\n        /* \"#utility.yul\":433:445   */\n      revert\n        /* \"#utility.yul\":457:574   */\n    tag_41:\n        /* \"#utility.yul\":566:567   */\n      0x00\n        /* \"#utility.yul\":563:564   */\n      dup1\n        /* \"#utility.yul\":556:568   */\n      revert\n        /* \"#utility.yul\":580:682   */\n    tag_42:\n        /* \"#utility.yul\":621:627   */\n      0x00\n        /* \"#utility.yul\":672:674   */\n      0x1f\n        /* \"#utility.yul\":668:675   */\n      not\n        /* \"#utility.yul\":663:665   */\n      0x1f\n        /* \"#utility.yul\":656:661   */\n      dup4\n        /* \"#utility.yul\":652:666   */\n      add\n        /* \"#utility.yul\":648:676   */\n      and\n        /* \"#utility.yul\":638:676   */\n      swap1\n      pop\n        /* \"#utility.yul\":580:682   */\n      swap2\n      swap1\n      pop\n      jump\t// out\n        /* \"#utility.yul\":688:868   */\n    tag_43:\n        /* \"#utility.yul\":736:813   */\n      0x4e487b7100000000000000000000000000000000000000000000000000000000\n        /* \"#utility.yul\":733:734   */\n      0x00\n        /* \"#utility.yul\":726:814   */\n      mstore\n        /* \"#utility.yul\":833:837   */\n      0x41\n        /* \"#utility.yul\":830:831   */\n      0x04\n        /* \"#utility.yul\":823:838   */\n      mstore\n        /* \"#utility.yul\":857:861   */\n      0x24\n        /* \"#utility.yul\":854:855   */\n      0x00\n        /* \"#utility.yul\":847:862   */\n      revert\n        /* \"#utility.yul\":874:1155   */\n    tag_44:\n        /* \"#utility.yul\":957:984   */\n      tag_94\n        /* \"#utility.yul\":979:983   */\n      dup3\n        /* \"#utility.yul\":957:984   */\n      tag_42\n      jump\t// in\n    tag_94:\n        /* \"#utility.yul\":949:955   */\n      dup2\n        /* \"#utility.yul\":945:985   */\n      add\n        /* \"#utility.yul\":1087:1093   */\n      dup2\n        /* \"#utility.yul\":1075:1085   */\n      dup2\n        /* \"#utility.yul\":1072:1094   */\n      lt\n        /* \"#utility.yul\":1051:1069   */\n      0xffffffffffffffff\n        /* \"#utility.yul\":1039:1049   */\n      dup3\n        /* \"#utility.yul\":1036:1070   */\n      gt\n        /* \"#utility.yul\":1033:1095   */\n      or\n        /* \"#utility.yul\":1030:1118   */\n      iszero\n      tag_95\n      jumpi\n        /* \"#utility.yul\":1098:1116   */\n      tag_96\n      tag_43\n      jump\t// in\n    tag_96:\n        /* \"#utility.yul\":1030:1118   */\n    tag_95:\n        /* \"#utility.yul\":1138:1148   */\n      dup1\n        /* \"#utility.yul\":1134:1136   */\n      0x40\n        /* \"#utility.yul\":1127:1149   */\n      mstore\n        /* \"#utility.yul\":917:1155   */\n      pop\n        /* \"#utility.yul\":874:1155   */\n      pop\n      pop\n      jump\t// out\n        /* \"#utility.yul\":1161:1290   */\n    tag_45:\n        /* \"#utility.yul\":1195:1201   */\n      0x00\n        /* \"#utility.yul\":1222:1242   */\n      tag_98\n      tag_37\n      jump\t// in\n    tag_98:\n        /* \"#utility.yul\":1212:1242   */\n      swap1\n      pop\n        /* \"#utility.yul\":1251:1284   */\n      tag_99\n        /* \"#utility.yul\":1279:1283   */\n      dup3\n        /* \"#utility.yul\":1271:1277   */\n      dup3\n        /* \"#utility.yul\":1251:1284   */\n      tag_44\n      jump\t// in\n    tag_99:\n        /* \"#utility.yul\":1161:1290   */\n      swap2\n      swap1\n      pop\n      jump\t// out\n        /* \"#utility.yul\":1296:1604   */\n    tag_46:\n        /* \"#utility.yul\":1358:1362   */\n      0x00\n        /* \"#utility.yul\":1448:1466   */\n      0xffffffffffffffff\n        /* \"#utility.yul\":1440:1446   */\n      dup3\n        /* \"#utility.yul\":1437:1467   */\n      gt\n        /* \"#utility.yul\":1434:1490   */\n      iszero\n      tag_101\n      jumpi\n        /* \"#utility.yul\":1470:1488   */\n      tag_102\n      tag_43\n      jump\t// in\n    tag_102:\n        /* \"#utility.yul\":1434:1490   */\n    tag_101:\n        /* \"#utility.yul\":1508:1537   */\n      tag_103\n        /* \"#utility.yul\":1530:1536   */\n      dup3\n        /* \"#utility.yul\":1508:1537   */\n      tag_42\n      jump\t// in\n    tag_103:\n        /* \"#utility.yul\":1500:1537   */\n      swap1\n      pop\n        /* \"#utility.yul\":1592:1596   */\n      0x20\n        /* \"#utility.yul\":1586:1590   */\n      dup2\n        /* \"#utility.yul\":1582:1597   */\n      add\n        /* \"#utility.yul\":1574:1597   */\n      swap1\n      pop\n        /* \"#utility.yul\":1296:1604   */\n      swap2\n      swap1\n      pop\n      jump\t// out\n        /* \"#utility.yul\":1610:1758   */\n    tag_47:\n        /* \"#utility.yul\":1708:1714   */\n      dup3\n        /* \"#utility.yul\":1703:1706   */\n      dup2\n        /* \"#utility.yul\":1698:1701   */\n      dup4\n        /* \"#utility.yul\":1685:1715   */\n      calldatacopy\n        /* \"#utility.yul\":1749:1750   */\n      0x00\n        /* \"#utility.yul\":1740:1746   */\n      dup4\n        /* \"#utility.yul\":1735:1738   */\n      dup4\n        /* \"#utility.yul\":1731:1747   */\n      add\n        /* \"#utility.yul\":1724:1751   */\n      mstore\n        /* \"#utility.yul\":1610:1758   */\n      pop\n      pop\n      pop\n      jump\t// out\n        /* \"#utility.yul\":1764:2189   */\n    tag_48:\n        /* \"#utility.yul\":1842:1847   */\n      0x00\n        /* \"#utility.yul\":1867:1933   */\n      tag_106\n        /* \"#utility.yul\":1883:1932   */\n      tag_107\n        /* \"#utility.yul\":1925:1931   */\n      dup5\n        /* \"#utility.yul\":1883:1932   */\n      tag_46\n      jump\t// in\n    tag_107:\n        /* \"#utility.yul\":1867:1933   */\n      tag_45\n      jump\t// in\n    tag_106:\n        /* \"#utility.yul\":1858:1933   */\n      swap1\n      pop\n        /* \"#utility.yul\":1956:1962   */\n      dup3\n        /* \"#utility.yul\":1949:1954   */\n      dup2\n        /* \"#utility.yul\":1942:1963   */\n      mstore\n        /* \"#utility.yul\":1994:1998   */\n      0x20\n        /* \"#utility.yul\":1987:1992   */\n      dup2\n        /* \"#utility.yul\":1983:1999   */\n      add\n        /* \"#utility.yul\":2032:2035   */\n      dup5\n        /* \"#utility.yul\":2023:2029   */\n      dup5\n        /* \"#utility.yul\":2018:2021   */\n      dup5\n        /* \"#utility.yul\":2014:2030   */\n      add\n        /* \"#utility.yul\":2011:2036   */\n      gt\n        /* \"#utility.yul\":2008:2120   */\n      iszero\n      tag_108\n      jumpi\n        /* \"#utility.yul\":2039:2118   */\n      tag_109\n      tag_41\n      jump\t// in\n    tag_109:\n        /* \"#utility.yul\":2008:2120   */\n    tag_108:\n        /* \"#utility.yul\":2129:2183   */\n      tag_110\n        /* \"#utility.yul\":2176:2182   */\n      dup5\n        /* \"#utility.yul\":2171:2174   */\n      dup3\n        /* \"#utility.yul\":2166:2169   */\n      dup6\n        /* \"#utility.yul\":2129:2183   */\n      tag_47\n      jump\t// in\n    tag_110:\n        /* \"#utility.yul\":1848:2189   */\n      pop\n        /* \"#utility.yul\":1764:2189   */\n      swap4\n      swap3\n      pop\n      pop\n      pop\n      jump\t// out\n        /* \"#utility.yul\":2209:2549   */\n    tag_49:\n        /* \"#utility.yul\":2265:2270   */\n      0x00\n        /* \"#utility.yul\":2314:2317   */\n      dup3\n        /* \"#utility.yul\":2307:2311   */\n      0x1f\n        /* \"#utility.yul\":2299:2305   */\n      dup4\n        /* \"#utility.yul\":2295:2312   */\n      add\n        /* \"#utility.yul\":2291:2318   */\n      slt\n        /* \"#utility.yul\":2281:2403   */\n      tag_112\n      jumpi\n        /* \"#utility.yul\":2322:2401   */\n      tag_113\n      tag_40\n      jump\t// in\n    tag_113:\n        /* \"#utility.yul\":2281:2403   */\n    tag_112:\n        /* \"#utility.yul\":2439:2445   */\n      dup2\n        /* \"#utility.yul\":2426:2446   */\n      calldataload\n        /* \"#utility.yul\":2464:2543   */\n      tag_114\n        /* \"#utility.yul\":2539:2542   */\n      dup5\n        /* \"#utility.yul\":2531:2537   */\n      dup3\n        /* \"#utility.yul\":2524:2528   */\n      0x20\n        /* \"#utility.yul\":2516:2522   */\n      dup7\n        /* \"#utility.yul\":2512:2529   */\n      add\n        /* \"#utility.yul\":2464:2543   */\n      tag_48\n      jump\t// in\n    tag_114:\n        /* \"#utility.yul\":2455:2543   */\n      swap2\n      pop\n        /* \"#utility.yul\":2271:2549   */\n      pop\n        /* \"#utility.yul\":2209:2549   */\n      swap3\n      swap2\n      pop\n      pop\n      jump\t// out\n        /* \"#utility.yul\":2555:3064   */\n    tag_8:\n        /* \"#utility.yul\":2624:2630   */\n      0x00\n        /* \"#utility.yul\":2673:2675   */\n      0x20\n        /* \"#utility.yul\":2661:2670   */\n      dup3\n        /* \"#utility.yul\":2652:2659   */\n      dup5\n        /* \"#utility.yul\":2648:2671   */\n      sub\n        /* \"#utility.yul\":2644:2676   */\n      slt\n        /* \"#utility.yul\":2641:2760   */\n      iszero\n      tag_116\n      jumpi\n        /* \"#utility.yul\":2679:2758   */\n      tag_117\n      tag_38\n      jump\t// in\n    tag_117:\n        /* \"#utility.yul\":2641:2760   */\n    tag_116:\n        /* \"#utility.yul\":2827:2828   */\n      0x00\n        /* \"#utility.yul\":2816:2825   */\n      dup3\n        /* \"#utility.yul\":2812:2829   */\n      add\n        /* \"#utility.yul\":2799:2830   */\n      calldataload\n        /* \"#utility.yul\":2857:2875   */\n      0xffffffffffffffff\n        /* \"#utility.yul\":2849:2855   */\n      dup2\n        /* \"#utility.yul\":2846:2876   */\n      gt\n        /* \"#utility.yul\":2843:2960   */\n      iszero\n      tag_118\n      jumpi\n        /* \"#utility.yul\":2879:2958   */\n      tag_119\n      tag_39\n      jump\t// in\n    tag_119:\n        /* \"#utility.yul\":2843:2960   */\n    tag_118:\n        /* \"#utility.yul\":2984:3047   */\n      tag_120\n        /* \"#utility.yul\":3039:3046   */\n      dup5\n        /* \"#utility.yul\":3030:3036   */\n      dup3\n        /* \"#utility.yul\":3019:3028   */\n      dup6\n        /* \"#utility.yul\":3015:3037   */\n      add\n        /* \"#utility.yul\":2984:3047   */\n      tag_49\n      jump\t// in\n    tag_120:\n        /* \"#utility.yul\":2974:3047   */\n      swap2\n      pop\n        /* \"#utility.yul\":2770:3057   */\n      pop\n        /* \"#utility.yul\":2555:3064   */\n      swap3\n      swap2\n      pop\n      pop\n      jump\t// out\n        /* \"#utility.yul\":3070:3147   */\n    tag_50:\n        /* \"#utility.yul\":3107:3114   */\n      0x00\n        /* \"#utility.yul\":3136:3141   */\n      dup2\n        /* \"#utility.yul\":3125:3141   */\n      swap1\n      pop\n        /* \"#utility.yul\":3070:3147   */\n      swap2\n      swap1\n      pop\n      jump\t// out\n        /* \"#utility.yul\":3153:3271   */\n    tag_51:\n        /* \"#utility.yul\":3240:3264   */\n      tag_123\n        /* \"#utility.yul\":3258:3263   */\n      dup2\n        /* \"#utility.yul\":3240:3264   */\n      tag_50\n      jump\t// in\n    tag_123:\n        /* \"#utility.yul\":3235:3238   */\n      dup3\n        /* \"#utility.yul\":3228:3265   */\n      mstore\n        /* \"#utility.yul\":3153:3271   */\n      pop\n      pop\n      jump\t// out\n        /* \"#utility.yul\":3277:3499   */\n    tag_13:\n        /* \"#utility.yul\":3370:3374   */\n      0x00\n        /* \"#utility.yul\":3408:3410   */\n      0x20\n        /* \"#utility.yul\":3397:3406   */\n      dup3\n        /* \"#utility.yul\":3393:3411   */\n      add\n        /* \"#utility.yul\":3385:3411   */\n      swap1\n      pop\n        /* \"#utility.yul\":3421:3492   */\n      tag_125\n        /* \"#utility.yul\":3489:3490   */\n      0x00\n        /* \"#utility.yul\":3478:3487   */\n      dup4\n        /* \"#utility.yul\":3474:3491   */\n      add\n        /* \"#utility.yul\":3465:3471   */\n      dup5\n        /* \"#utility.yul\":3421:3492   */\n      tag_51\n      jump\t// in\n    tag_125:\n        /* \"#utility.yul\":3277:3499   */\n      swap3\n      swap2\n      pop\n      pop\n      jump\t// out\n        /* \"#utility.yul\":3505:3638   */\n    tag_52:\n        /* \"#utility.yul\":3591:3597   */\n      0x00\n        /* \"#utility.yul\":3625:3630   */\n      dup2\n        /* \"#utility.yul\":3619:3631   */\n      mload\n        /* \"#utility.yul\":3609:3631   */\n      swap1\n      pop\n        /* \"#utility.yul\":3505:3638   */\n      swap2\n      swap1\n      pop\n      jump\t// out\n        /* \"#utility.yul\":3644:3847   */\n    tag_53:\n        /* \"#utility.yul\":3762:3773   */\n      0x00\n        /* \"#utility.yul\":3796:3802   */\n      dup3\n        /* \"#utility.yul\":3791:3794   */\n      dup3\n        /* \"#utility.yul\":3784:3803   */\n      mstore\n        /* \"#utility.yul\":3836:3840   */\n      0x20\n        /* \"#utility.yul\":3831:3834   */\n      dup3\n        /* \"#utility.yul\":3827:3841   */\n      add\n        /* \"#utility.yul\":3812:3841   */\n      swap1\n      pop\n        /* \"#utility.yul\":3644:3847   */\n      swap3\n      swap2\n      pop\n      pop\n      jump\t// out\n        /* \"#utility.yul\":3853:4004   */\n    tag_54:\n        /* \"#utility.yul\":3939:3943   */\n      0x00\n        /* \"#utility.yul\":3962:3965   */\n      dup2\n        /* \"#utility.yul\":3954:3965   */\n      swap1\n      pop\n        /* \"#utility.yul\":3992:3996   */\n      0x20\n        /* \"#utility.yul\":3987:3990   */\n      dup3\n        /* \"#utility.yul\":3983:3997   */\n      add\n        /* \"#utility.yul\":3975:3997   */\n      swap1\n      pop\n        /* \"#utility.yul\":3853:4004   */\n      swap2\n      swap1\n      pop\n      jump\t// out\n        /* \"#utility.yul\":4010:4136   */\n    tag_55:\n        /* \"#utility.yul\":4047:4054   */\n      0x00\n        /* \"#utility.yul\":4087:4129   */\n      0xffffffffffffffffffffffffffffffffffffffff\n        /* \"#utility.yul\":4080:4085   */\n      dup3\n        /* \"#utility.yul\":4076:4130   */\n      and\n        /* \"#utility.yul\":4065:4130   */\n      swap1\n      pop\n        /* \"#utility.yul\":4010:4136   */\n      swap2\n      swap1\n      pop\n      jump\t// out\n        /* \"#utility.yul\":4142:4238   */\n    tag_56:\n        /* \"#utility.yul\":4179:4186   */\n      0x00\n        /* \"#utility.yul\":4208:4232   */\n      tag_131\n        /* \"#utility.yul\":4226:4231   */\n      dup3\n        /* \"#utility.yul\":4208:4232   */\n      tag_55\n      jump\t// in\n    tag_131:\n        /* \"#utility.yul\":4197:4232   */\n      swap1\n      pop\n        /* \"#utility.yul\":4142:4238   */\n      swap2\n      swap1\n      pop\n      jump\t// out\n        /* \"#utility.yul\":4244:4352   */\n    tag_57:\n        /* \"#utility.yul\":4321:4345   */\n      tag_133\n        /* \"#utility.yul\":4339:4344   */\n      dup2\n        /* \"#utility.yul\":4321:4345   */\n      tag_56\n      jump\t// in\n    tag_133:\n        /* \"#utility.yul\":4316:4319   */\n      dup3\n        /* \"#utility.yul\":4309:4346   */\n      mstore\n        /* \"#utility.yul\":4244:4352   */\n      pop\n      pop\n      jump\t// out\n        /* \"#utility.yul\":4358:4457   */\n    tag_58:\n        /* \"#utility.yul\":4410:4416   */\n      0x00\n        /* \"#utility.yul\":4444:4449   */\n      dup2\n        /* \"#utility.yul\":4438:4450   */\n      mload\n        /* \"#utility.yul\":4428:4450   */\n      swap1\n      pop\n        /* \"#utility.yul\":4358:4457   */\n      swap2\n      swap1\n      pop\n      jump\t// out\n        /* \"#utility.yul\":4463:4622   */\n    tag_59:\n        /* \"#utility.yul\":4537:4548   */\n      0x00\n        /* \"#utility.yul\":4571:4577   */\n      dup3\n        /* \"#utility.yul\":4566:4569   */\n      dup3\n        /* \"#utility.yul\":4559:4578   */\n      mstore\n        /* \"#utility.yul\":4611:4615   */\n      0x20\n        /* \"#utility.yul\":4606:4609   */\n      dup3\n        /* \"#utility.yul\":4602:4616   */\n      add\n        /* \"#utility.yul\":4587:4616   */\n      swap1\n      pop\n        /* \"#utility.yul\":4463:4622   */\n      swap3\n      swap2\n      pop\n      pop\n      jump\t// out\n        /* \"#utility.yul\":4628:4767   */\n    tag_60:\n        /* \"#utility.yul\":4717:4723   */\n      dup3\n        /* \"#utility.yul\":4712:4715   */\n      dup2\n        /* \"#utility.yul\":4707:4710   */\n      dup4\n        /* \"#utility.yul\":4701:4724   */\n      mcopy\n        /* \"#utility.yul\":4758:4759   */\n      0x00\n        /* \"#utility.yul\":4749:4755   */\n      dup4\n        /* \"#utility.yul\":4744:4747   */\n      dup4\n        /* \"#utility.yul\":4740:4756   */\n      add\n        /* \"#utility.yul\":4733:4760   */\n      mstore\n        /* \"#utility.yul\":4628:4767   */\n      pop\n      pop\n      pop\n      jump\t// out\n        /* \"#utility.yul\":4773:5130   */\n    tag_61:\n        /* \"#utility.yul\":4851:4854   */\n      0x00\n        /* \"#utility.yul\":4879:4918   */\n      tag_138\n        /* \"#utility.yul\":4912:4917   */\n      dup3\n        /* \"#utility.yul\":4879:4918   */\n      tag_58\n      jump\t// in\n    tag_138:\n        /* \"#utility.yul\":4934:4995   */\n      tag_139\n        /* \"#utility.yul\":4988:4994   */\n      dup2\n        /* \"#utility.yul\":4983:4986   */\n      dup6\n        /* \"#utility.yul\":4934:4995   */\n      tag_59\n      jump\t// in\n    tag_139:\n        /* \"#utility.yul\":4927:4995   */\n      swap4\n      pop\n        /* \"#utility.yul\":5004:5069   */\n      tag_140\n        /* \"#utility.yul\":5062:5068   */\n      dup2\n        /* \"#utility.yul\":5057:5060   */\n      dup6\n        /* \"#utility.yul\":5050:5054   */\n      0x20\n        /* \"#utility.yul\":5043:5048   */\n      dup7\n        /* \"#utility.yul\":5039:5055   */\n      add\n        /* \"#utility.yul\":5004:5069   */\n      tag_60\n      jump\t// in\n    tag_140:\n        /* \"#utility.yul\":5094:5123   */\n      tag_141\n        /* \"#utility.yul\":5116:5122   */\n      dup2\n        /* \"#utility.yul\":5094:5123   */\n      tag_42\n      jump\t// in\n    tag_141:\n        /* \"#utility.yul\":5089:5092   */\n      dup5\n        /* \"#utility.yul\":5085:5124   */\n      add\n        /* \"#utility.yul\":5078:5124   */\n      swap2\n      pop\n        /* \"#utility.yul\":4855:5130   */\n      pop\n        /* \"#utility.yul\":4773:5130   */\n      swap3\n      swap2\n      pop\n      pop\n      jump\t// out\n        /* \"#utility.yul\":5192:5781   */\n    tag_62:\n        /* \"#utility.yul\":5289:5292   */\n      0x00\n        /* \"#utility.yul\":5325:5329   */\n      0x40\n        /* \"#utility.yul\":5320:5323   */\n      dup4\n        /* \"#utility.yul\":5316:5330   */\n      add\n        /* \"#utility.yul\":5414:5418   */\n      0x00\n        /* \"#utility.yul\":5407:5412   */\n      dup4\n        /* \"#utility.yul\":5403:5419   */\n      add\n        /* \"#utility.yul\":5397:5420   */\n      mload\n        /* \"#utility.yul\":5433:5496   */\n      tag_143\n        /* \"#utility.yul\":5490:5494   */\n      0x00\n        /* \"#utility.yul\":5485:5488   */\n      dup7\n        /* \"#utility.yul\":5481:5495   */\n      add\n        /* \"#utility.yul\":5467:5479   */\n      dup3\n        /* \"#utility.yul\":5433:5496   */\n      tag_57\n      jump\t// in\n    tag_143:\n        /* \"#utility.yul\":5340:5506   */\n      pop\n        /* \"#utility.yul\":5591:5595   */\n      0x20\n        /* \"#utility.yul\":5584:5589   */\n      dup4\n        /* \"#utility.yul\":5580:5596   */\n      add\n        /* \"#utility.yul\":5574:5597   */\n      mload\n        /* \"#utility.yul\":5644:5647   */\n      dup5\n        /* \"#utility.yul\":5638:5642   */\n      dup3\n        /* \"#utility.yul\":5634:5648   */\n      sub\n        /* \"#utility.yul\":5627:5631   */\n      0x20\n        /* \"#utility.yul\":5622:5625   */\n      dup7\n        /* \"#utility.yul\":5618:5632   */\n      add\n        /* \"#utility.yul\":5611:5649   */\n      mstore\n        /* \"#utility.yul\":5670:5743   */\n      tag_144\n        /* \"#utility.yul\":5738:5742   */\n      dup3\n        /* \"#utility.yul\":5724:5736   */\n      dup3\n        /* \"#utility.yul\":5670:5743   */\n      tag_61\n      jump\t// in\n    tag_144:\n        /* \"#utility.yul\":5662:5743   */\n      swap2\n      pop\n        /* \"#utility.yul\":5516:5754   */\n      pop\n        /* \"#utility.yul\":5771:5775   */\n      dup1\n        /* \"#utility.yul\":5764:5775   */\n      swap2\n      pop\n        /* \"#utility.yul\":5294:5781   */\n      pop\n        /* \"#utility.yul\":5192:5781   */\n      swap3\n      swap2\n      pop\n      pop\n      jump\t// out\n        /* \"#utility.yul\":5787:6019   */\n    tag_63:\n        /* \"#utility.yul\":5894:5904   */\n      0x00\n        /* \"#utility.yul\":5929:6013   */\n      tag_146\n        /* \"#utility.yul\":6009:6012   */\n      dup4\n        /* \"#utility.yul\":6001:6007   */\n      dup4\n        /* \"#utility.yul\":5929:6013   */\n      tag_62\n      jump\t// in\n    tag_146:\n        /* \"#utility.yul\":5915:6013   */\n      swap1\n      pop\n        /* \"#utility.yul\":5787:6019   */\n      swap3\n      swap2\n      pop\n      pop\n      jump\t// out\n        /* \"#utility.yul\":6025:6157   */\n    tag_64:\n        /* \"#utility.yul\":6114:6118   */\n      0x00\n        /* \"#utility.yul\":6146:6150   */\n      0x20\n        /* \"#utility.yul\":6141:6144   */\n      dup3\n        /* \"#utility.yul\":6137:6151   */\n      add\n        /* \"#utility.yul\":6129:6151   */\n      swap1\n      pop\n        /* \"#utility.yul\":6025:6157   */\n      swap2\n      swap1\n      pop\n      jump\t// out\n        /* \"#utility.yul\":6223:7286   */\n    tag_65:\n        /* \"#utility.yul\":6380:6383   */\n      0x00\n        /* \"#utility.yul\":6409:6482   */\n      tag_149\n        /* \"#utility.yul\":6476:6481   */\n      dup3\n        /* \"#utility.yul\":6409:6482   */\n      tag_52\n      jump\t// in\n    tag_149:\n        /* \"#utility.yul\":6498:6603   */\n      tag_150\n        /* \"#utility.yul\":6596:6602   */\n      dup2\n        /* \"#utility.yul\":6591:6594   */\n      dup6\n        /* \"#utility.yul\":6498:6603   */\n      tag_53\n      jump\t// in\n    tag_150:\n        /* \"#utility.yul\":6491:6603   */\n      swap4\n      pop\n        /* \"#utility.yul\":6629:6632   */\n      dup4\n        /* \"#utility.yul\":6674:6678   */\n      0x20\n        /* \"#utility.yul\":6666:6672   */\n      dup3\n        /* \"#utility.yul\":6662:6679   */\n      mul\n        /* \"#utility.yul\":6657:6660   */\n      dup6\n        /* \"#utility.yul\":6653:6680   */\n      add\n        /* \"#utility.yul\":6704:6779   */\n      tag_151\n        /* \"#utility.yul\":6773:6778   */\n      dup6\n        /* \"#utility.yul\":6704:6779   */\n      tag_54\n      jump\t// in\n    tag_151:\n        /* \"#utility.yul\":6802:6809   */\n      dup1\n        /* \"#utility.yul\":6833:6834   */\n      0x00\n        /* \"#utility.yul\":6818:7241   */\n    tag_152:\n        /* \"#utility.yul\":6843:6849   */\n      dup6\n        /* \"#utility.yul\":6840:6841   */\n      dup2\n        /* \"#utility.yul\":6837:6850   */\n      lt\n        /* \"#utility.yul\":6818:7241   */\n      iszero\n      tag_154\n      jumpi\n        /* \"#utility.yul\":6914:6923   */\n      dup5\n        /* \"#utility.yul\":6908:6912   */\n      dup5\n        /* \"#utility.yul\":6904:6924   */\n      sub\n        /* \"#utility.yul\":6899:6902   */\n      dup10\n        /* \"#utility.yul\":6892:6925   */\n      mstore\n        /* \"#utility.yul\":6965:6971   */\n      dup2\n        /* \"#utility.yul\":6959:6972   */\n      mload\n        /* \"#utility.yul\":6993:7095   */\n      tag_155\n        /* \"#utility.yul\":7090:7094   */\n      dup6\n        /* \"#utility.yul\":7075:7088   */\n      dup3\n        /* \"#utility.yul\":6993:7095   */\n      tag_63\n      jump\t// in\n    tag_155:\n        /* \"#utility.yul\":6985:7095   */\n      swap5\n      pop\n        /* \"#utility.yul\":7118:7197   */\n      tag_156\n        /* \"#utility.yul\":7190:7196   */\n      dup4\n        /* \"#utility.yul\":7118:7197   */\n      tag_64\n      jump\t// in\n    tag_156:\n        /* \"#utility.yul\":7108:7197   */\n      swap3\n      pop\n        /* \"#utility.yul\":7226:7230   */\n      0x20\n        /* \"#utility.yul\":7221:7224   */\n      dup11\n        /* \"#utility.yul\":7217:7231   */\n      add\n        /* \"#utility.yul\":7210:7231   */\n      swap10\n      pop\n        /* \"#utility.yul\":6878:7241   */\n      pop\n        /* \"#utility.yul\":6865:6866   */\n      0x01\n        /* \"#utility.yul\":6862:6863   */\n      dup2\n        /* \"#utility.yul\":6858:6867   */\n      add\n        /* \"#utility.yul\":6853:6867   */\n      swap1\n      pop\n        /* \"#utility.yul\":6818:7241   */\n      jump(tag_152)\n    tag_154:\n        /* \"#utility.yul\":6822:6836   */\n      pop\n        /* \"#utility.yul\":7257:7261   */\n      dup3\n        /* \"#utility.yul\":7250:7261   */\n      swap8\n      pop\n        /* \"#utility.yul\":7277:7280   */\n      dup8\n        /* \"#utility.yul\":7270:7280   */\n      swap6\n      pop\n        /* \"#utility.yul\":6385:7286   */\n      pop\n      pop\n      pop\n      pop\n      pop\n        /* \"#utility.yul\":6223:7286   */\n      swap3\n      swap2\n      pop\n      pop\n      jump\t// out\n        /* \"#utility.yul\":7292:7741   */\n    tag_17:\n        /* \"#utility.yul\":7473:7477   */\n      0x00\n        /* \"#utility.yul\":7511:7513   */\n      0x20\n        /* \"#utility.yul\":7500:7509   */\n      dup3\n        /* \"#utility.yul\":7496:7514   */\n      add\n        /* \"#utility.yul\":7488:7514   */\n      swap1\n      pop\n        /* \"#utility.yul\":7560:7569   */\n      dup2\n        /* \"#utility.yul\":7554:7558   */\n      dup2\n        /* \"#utility.yul\":7550:7570   */\n      sub\n        /* \"#utility.yul\":7546:7547   */\n      0x00\n        /* \"#utility.yul\":7535:7544   */\n      dup4\n        /* \"#utility.yul\":7531:7548   */\n      add\n        /* \"#utility.yul\":7524:7571   */\n      mstore\n        /* \"#utility.yul\":7588:7734   */\n      tag_158\n        /* \"#utility.yul\":7729:7733   */\n      dup2\n        /* \"#utility.yul\":7720:7726   */\n      dup5\n        /* \"#utility.yul\":7588:7734   */\n      tag_65\n      jump\t// in\n    tag_158:\n        /* \"#utility.yul\":7580:7734   */\n      swap1\n      pop\n        /* \"#utility.yul\":7292:7741   */\n      swap3\n      swap2\n      pop\n      pop\n      jump\t// out\n        /* \"#utility.yul\":7747:7927   */\n    tag_66:\n        /* \"#utility.yul\":7795:7872   */\n      0x4e487b7100000000000000000000000000000000000000000000000000000000\n        /* \"#utility.yul\":7792:7793   */\n      0x00\n        /* \"#utility.yul\":7785:7873   */\n      mstore\n        /* \"#utility.yul\":7892:7896   */\n      0x11\n        /* \"#utility.yul\":7889:7890   */\n      0x04\n        /* \"#utility.yul\":7882:7897   */\n      mstore\n        /* \"#utility.yul\":7916:7920   */\n      0x24\n        /* \"#utility.yul\":7913:7914   */\n      0x00\n        /* \"#utility.yul\":7906:7921   */\n      revert\n        /* \"#utility.yul\":7933:8124   */\n    tag_20:\n        /* \"#utility.yul\":7973:7976   */\n      0x00\n        /* \"#utility.yul\":7992:8012   */\n      tag_161\n        /* \"#utility.yul\":8010:8011   */\n      dup3\n        /* \"#utility.yul\":7992:8012   */\n      tag_50\n      jump\t// in\n    tag_161:\n        /* \"#utility.yul\":7987:8012   */\n      swap2\n      pop\n        /* \"#utility.yul\":8026:8046   */\n      tag_162\n        /* \"#utility.yul\":8044:8045   */\n      dup4\n        /* \"#utility.yul\":8026:8046   */\n      tag_50\n      jump\t// in\n    tag_162:\n        /* \"#utility.yul\":8021:8046   */\n      swap3\n      pop\n        /* \"#utility.yul\":8069:8070   */\n      dup3\n        /* \"#utility.yul\":8066:8067   */\n      dup3\n        /* \"#utility.yul\":8062:8071   */\n      add\n        /* \"#utility.yul\":8055:8071   */\n      swap1\n      pop\n        /* \"#utility.yul\":8090:8093   */\n      dup1\n        /* \"#utility.yul\":8087:8088   */\n      dup3\n        /* \"#utility.yul\":8084:8094   */\n      gt\n        /* \"#utility.yul\":8081:8117   */\n      iszero\n      tag_163\n      jumpi\n        /* \"#utility.yul\":8097:8115   */\n      tag_164\n      tag_66\n      jump\t// in\n    tag_164:\n        /* \"#utility.yul\":8081:8117   */\n    tag_163:\n        /* \"#utility.yul\":7933:8124   */\n      swap3\n      swap2\n      pop\n      pop\n      jump\t// out\n        /* \"#utility.yul\":8130:8310   */\n    tag_67:\n        /* \"#utility.yul\":8178:8255   */\n      0x4e487b7100000000000000000000000000000000000000000000000000000000\n        /* \"#utility.yul\":8175:8176   */\n      0x00\n        /* \"#utility.yul\":8168:8256   */\n      mstore\n        /* \"#utility.yul\":8275:8279   */\n      0x22\n        /* \"#utility.yul\":8272:8273   */\n      0x04\n        /* \"#utility.yul\":8265:8280   */\n      mstore\n        /* \"#utility.yul\":8299:8303   */\n      0x24\n        /* \"#utility.yul\":8296:8297   */\n      0x00\n        /* \"#utility.yul\":8289:8304   */\n      revert\n        /* \"#utility.yul\":8316:8636   */\n    tag_32:\n        /* \"#utility.yul\":8360:8366   */\n      0x00\n        /* \"#utility.yul\":8397:8398   */\n      0x02\n        /* \"#utility.yul\":8391:8395   */\n      dup3\n        /* \"#utility.yul\":8387:8399   */\n      div\n        /* \"#utility.yul\":8377:8399   */\n      swap1\n      pop\n        /* \"#utility.yul\":8444:8445   */\n      0x01\n        /* \"#utility.yul\":8438:8442   */\n      dup3\n        /* \"#utility.yul\":8434:8446   */\n      and\n        /* \"#utility.yul\":8465:8483   */\n      dup1\n        /* \"#utility.yul\":8455:8536   */\n      tag_167\n      jumpi\n        /* \"#utility.yul\":8521:8525   */\n      0x7f\n        /* \"#utility.yul\":8513:8519   */\n      dup3\n        /* \"#utility.yul\":8509:8526   */\n      and\n        /* \"#utility.yul\":8499:8526   */\n      swap2\n      pop\n        /* \"#utility.yul\":8455:8536   */\n    tag_167:\n        /* \"#utility.yul\":8583:8585   */\n      0x20\n        /* \"#utility.yul\":8575:8581   */\n      dup3\n        /* \"#utility.yul\":8572:8586   */\n      lt\n        /* \"#utility.yul\":8552:8570   */\n      dup2\n        /* \"#utility.yul\":8549:8587   */\n      sub\n        /* \"#utility.yul\":8546:8630   */\n      tag_168\n      jumpi\n        /* \"#utility.yul\":8602:8620   */\n      tag_169\n      tag_67\n      jump\t// in\n    tag_169:\n        /* \"#utility.yul\":8546:8630   */\n    tag_168:\n        /* \"#utility.yul\":8367:8636   */\n      pop\n        /* \"#utility.yul\":8316:8636   */\n      swap2\n      swap1\n      pop\n      jump\t// out\n        /* \"#utility.yul\":8642:8783   */\n    tag_68:\n        /* \"#utility.yul\":8691:8695   */\n      0x00\n        /* \"#utility.yul\":8714:8717   */\n      dup2\n        /* \"#utility.yul\":8706:8717   */\n      swap1\n      pop\n        /* \"#utility.yul\":8737:8740   */\n      dup2\n        /* \"#utility.yul\":8734:8735   */\n      0x00\n        /* \"#utility.yul\":8727:8741   */\n      mstore\n        /* \"#utility.yul\":8771:8775   */\n      0x20\n        /* \"#utility.yul\":8768:8769   */\n      0x00\n        /* \"#utility.yul\":8758:8776   */\n      keccak256\n        /* \"#utility.yul\":8750:8776   */\n      swap1\n      pop\n        /* \"#utility.yul\":8642:8783   */\n      swap2\n      swap1\n      pop\n      jump\t// out\n        /* \"#utility.yul\":8789:8882   */\n    tag_69:\n        /* \"#utility.yul\":8826:8832   */\n      0x00\n        /* \"#utility.yul\":8873:8875   */\n      0x20\n        /* \"#utility.yul\":8868:8870   */\n      0x1f\n        /* \"#utility.yul\":8861:8866   */\n      dup4\n        /* \"#utility.yul\":8857:8871   */\n      add\n        /* \"#utility.yul\":8853:8876   */\n      div\n        /* \"#utility.yul\":8843:8876   */\n      swap1\n      pop\n        /* \"#utility.yul\":8789:8882   */\n      swap2\n      swap1\n      pop\n      jump\t// out\n        /* \"#utility.yul\":8888:8995   */\n    tag_70:\n        /* \"#utility.yul\":8932:8940   */\n      0x00\n        /* \"#utility.yul\":8982:8987   */\n      dup3\n        /* \"#utility.yul\":8976:8980   */\n      dup3\n        /* \"#utility.yul\":8972:8988   */\n      shl\n        /* \"#utility.yul\":8951:8988   */\n      swap1\n      pop\n        /* \"#utility.yul\":8888:8995   */\n      swap3\n      swap2\n      pop\n      pop\n      jump\t// out\n        /* \"#utility.yul\":9001:9394   */\n    tag_71:\n        /* \"#utility.yul\":9070:9076   */\n      0x00\n        /* \"#utility.yul\":9120:9121   */\n      0x08\n        /* \"#utility.yul\":9108:9118   */\n      dup4\n        /* \"#utility.yul\":9104:9122   */\n      mul\n        /* \"#utility.yul\":9143:9240   */\n      tag_174\n        /* \"#utility.yul\":9173:9239   */\n      0xffffffffffffffffffffffffffffffffffffffffffffffffffffffffffffffff\n        /* \"#utility.yul\":9162:9171   */\n      dup3\n        /* \"#utility.yul\":9143:9240   */\n      tag_70\n      jump\t// in\n    tag_174:\n        /* \"#utility.yul\":9261:9300   */\n      tag_175\n        /* \"#utility.yul\":9291:9299   */\n      dup7\n        /* \"#utility.yul\":9280:9289   */\n      dup4\n        /* \"#utility.yul\":9261:9300   */\n      tag_70\n      jump\t// in\n    tag_175:\n        /* \"#utility.yul\":9249:9300   */\n      swap6\n      pop\n        /* \"#utility.yul\":9333:9337   */\n      dup1\n        /* \"#utility.yul\":9329:9338   */\n      not\n        /* \"#utility.yul\":9322:9327   */\n      dup5\n        /* \"#utility.yul\":9318:9339   */\n      and\n        /* \"#utility.yul\":9309:9339   */\n      swap4\n      pop\n        /* \"#utility.yul\":9382:9386   */\n      dup1\n        /* \"#utility.yul\":9372:9380   */\n      dup7\n        /* \"#utility.yul\":9368:9387   */\n      and\n        /* \"#utility.yul\":9361:9366   */\n      dup5\n        /* \"#utility.yul\":9358:9388   */\n      or\n        /* \"#utility.yul\":9348:9388   */\n      swap3\n      pop\n        /* \"#utility.yul\":9077:9394   */\n      pop\n      pop\n        /* \"#utility.yul\":9001:9394   */\n      swap4\n      swap3\n      pop\n      pop\n      pop\n      jump\t// out\n        /* \"#utility.yul\":9400:9460   */\n    tag_72:\n        /* \"#utility.yul\":9428:9431   */\n      0x00\n        /* \"#utility.yul\":9449:9454   */\n      dup2\n        /* \"#utility.yul\":9442:9454   */\n      swap1\n      pop\n        /* \"#utility.yul\":9400:9460   */\n      swap2\n      swap1\n      pop\n      jump\t// out\n        /* \"#utility.yul\":9466:9608   */\n    tag_73:\n        /* \"#utility.yul\":9516:9525   */\n      0x00\n        /* \"#utility.yul\":9549:9602   */\n      tag_178\n        /* \"#utility.yul\":9567:9601   */\n      tag_179\n        /* \"#utility.yul\":9576:9600   */\n      tag_180\n        /* \"#utility.yul\":9594:9599   */\n      dup5\n        /* \"#utility.yul\":9576:9600   */\n      tag_50\n      jump\t// in\n    tag_180:\n        /* \"#utility.yul\":9567:9601   */\n      tag_72\n      jump\t// in\n    tag_179:\n        /* \"#utility.yul\":9549:9602   */\n      tag_50\n      jump\t// in\n    tag_178:\n        /* \"#utility.yul\":9536:9602   */\n      swap1\n      pop\n        /* \"#utility.yul\":9466:9608   */\n      swap2\n      swap1\n      pop\n      jump\t// out\n        /* \"#utility.yul\":9614:9689   */\n    tag_74:\n        /* \"#utility.yul\":9657:9660   */\n      0x00\n        /* \"#utility.yul\":9678:9683   */\n      dup2\n        /* \"#utility.yul\":9671:9683   */\n      swap1\n      pop\n        /* \"#utility.yul\":9614:9689   */\n      swap2\n      swap1\n      pop\n      jump\t// out\n        /* \"#utility.yul\":9695:9964   */\n    tag_75:\n        /* \"#utility.yul\":9805:9844   */\n      tag_183\n        /* \"#utility.yul\":9836:9843   */\n      dup4\n        /* \"#utility.yul\":9805:9844   */\n      tag_73\n      jump\t// in\n    tag_183:\n        /* \"#utility.yul\":9866:9957   */\n      tag_184\n        /* \"#utility.yul\":9915:9956   */\n      tag_185\n        /* \"#utility.yul\":9939:9955   */\n      dup3\n        /* \"#utility.yul\":9915:9956   */\n      tag_74\n      jump\t// in\n    tag_185:\n        /* \"#utility.yul\":9907:9913   */\n      dup5\n        /* \"#utility.yul\":9900:9904   */\n      dup5\n        /* \"#utility.yul\":9894:9905   */\n      sload\n        /* \"#utility.yul\":9866:9957   */\n      tag_71\n      jump\t// in\n    tag_184:\n        /* \"#utility.yul\":9860:9864   */\n      dup3\n        /* \"#utility.yul\":9853:9958   */\n      sstore\n        /* \"#utility.yul\":9771:9964   */\n      pop\n        /* \"#utility.yul\":9695:9964   */\n      pop\n      pop\n      pop\n      jump\t// out\n        /* \"#utility.yul\":9970:10043   */\n    tag_76:\n        /* \"#utility.yul\":10015:10018   */\n      0x00\n        /* \"#utility.yul\":9970:10043   */\n      swap1\n      jump\t// out\n        /* \"#utility.yul\":10049:10238   */\n    tag_77:\n        /* \"#utility.yul\":10126:10158   */\n      tag_188\n      tag_76\n      jump\t// in\n    tag_188:\n        /* \"#utility.yul\":10167:10232   */\n      tag_189\n        /* \"#utility.yul\":10225:10231   */\n      dup2\n        /* \"#utility.yul\":10217:10223   */\n      dup5\n        /* \"#utility.yul\":10211:10215   */\n      dup5\n        /* \"#utility.yul\":10167:10232   */\n      tag_75\n      jump\t// in\n    tag_189:\n        /* \"#utility.yul\":10102:10238   */\n      pop\n        /* \"#utility.yul\":10049:10238   */\n      pop\n      pop\n      jump\t// out\n        /* \"#utility.yul\":10244:10430   */\n    tag_78:\n        /* \"#utility.yul\":10304:10424   */\n    tag_191:\n        /* \"#utility.yul\":10321:10324   */\n      dup2\n        /* \"#utility.yul\":10314:10319   */\n      dup2\n        /* \"#utility.yul\":10311:10325   */\n      lt\n        /* \"#utility.yul\":10304:10424   */\n      iszero\n      tag_193\n      jumpi\n        /* \"#utility.yul\":10375:10414   */\n      tag_194\n        /* \"#utility.yul\":10412:10413   */\n      0x00\n        /* \"#utility.yul\":10405:10410   */\n      dup3\n        /* \"#utility.yul\":10375:10414   */\n      tag_77\n      jump\t// in\n    tag_194:\n        /* \"#utility.yul\":10348:10349   */\n      0x01\n        /* \"#utility.yul\":10341:10346   */\n      dup2\n        /* \"#utility.yul\":10337:10350   */\n      add\n        /* \"#utility.yul\":10328:10350   */\n      swap1\n      pop\n        /* \"#utility.yul\":10304:10424   */\n      jump(tag_191)\n    tag_193:\n        /* \"#utility.yul\":10244:10430   */\n      pop\n      pop\n      jump\t// out\n        /* \"#utility.yul\":10436:10979   */\n    tag_79:\n        /* \"#utility.yul\":10537:10539   */\n      0x1f\n        /* \"#utility.yul\":10532:10535   */\n      dup3\n        /* \"#utility.yul\":10529:10540   */\n      gt\n        /* \"#utility.yul\":10526:10972   */\n      iszero\n      tag_196\n      jumpi\n        /* \"#utility.yul\":10571:10609   */\n      tag_197\n        /* \"#utility.yul\":10603:10608   */\n      dup2\n        /* \"#utility.yul\":10571:10609   */\n      tag_68\n      jump\t// in\n    tag_197:\n        /* \"#utility.yul\":10655:10684   */\n      tag_198\n        /* \"#utility.yul\":10673:10683   */\n      dup5\n        /* \"#utility.yul\":10655:10684   */\n      tag_69\n      jump\t// in\n    tag_198:\n        /* \"#utility.yul\":10645:10653   */\n      dup2\n        /* \"#utility.yul\":10641:10685   */\n      add\n        /* \"#utility.yul\":10838:10840   */\n      0x20\n        /* \"#utility.yul\":10826:10836   */\n      dup6\n        /* \"#utility.yul\":10823:10841   */\n      lt\n        /* \"#utility.yul\":10820:10869   */\n      iszero\n      tag_199\n      jumpi\n        /* \"#utility.yul\":10859:10867   */\n      dup2\n        /* \"#utility.yul\":10844:10867   */\n      swap1\n      pop\n        /* \"#utility.yul\":10820:10869   */\n    tag_199:\n        /* \"#utility.yul\":10882:10962   */\n      tag_200\n        /* \"#utility.yul\":10938:10960   */\n      tag_201\n        /* \"#utility.yul\":10956:10959   */\n      dup6\n        /* \"#utility.yul\":10938:10960   */\n      tag_69\n      jump\t// in\n    tag_201:\n        /* \"#utility.yul\":10928:10936   */\n      dup4\n        /* \"#utility.yul\":10924:10961   */\n      add\n        /* \"#utility.yul\":10911:10922   */\n      dup3\n        /* \"#utility.yul\":10882:10962   */\n      tag_78\n      jump\t// in\n    tag_200:\n        /* \"#utility.yul\":10541:10972   */\n      pop\n      pop\n        /* \"#utility.yul\":10526:10972   */\n    tag_196:\n        /* \"#utility.yul\":10436:10979   */\n      pop\n      pop\n      pop\n      jump\t// out\n        /* \"#utility.yul\":10985:11102   */\n    tag_80:\n        /* \"#utility.yul\":11039:11047   */\n      0x00\n        /* \"#utility.yul\":11089:11094   */\n      dup3\n        /* \"#utility.yul\":11083:11087   */\n      dup3\n        /* \"#utility.yul\":11079:11095   */\n      shr\n        /* \"#utility.yul\":11058:11095   */\n      swap1\n      pop\n        /* \"#utility.yul\":10985:11102   */\n      swap3\n      swap2\n      pop\n      pop\n      jump\t// out\n        /* \"#utility.yul\":11108:11277   */\n    tag_81:\n        /* \"#utility.yul\":11152:11158   */\n      0x00\n        /* \"#utility.yul\":11185:11236   */\n      tag_204\n        /* \"#utility.yul\":11233:11234   */\n      0x00\n        /* \"#utility.yul\":11229:11235   */\n      not\n        /* \"#utility.yul\":11221:11226   */\n      dup5\n        /* \"#utility.yul\":11218:11219   */\n      0x08\n        /* \"#utility.yul\":11214:11227   */\n      mul\n        /* \"#utility.yul\":11185:11236   */\n      tag_80\n      jump\t// in\n    tag_204:\n        /* \"#utility.yul\":11181:11237   */\n      not\n        /* \"#utility.yul\":11266:11270   */\n      dup1\n        /* \"#utility.yul\":11260:11264   */\n      dup4\n        /* \"#utility.yul\":11256:11271   */\n      and\n        /* \"#utility.yul\":11246:11271   */\n      swap2\n      pop\n        /* \"#utility.yul\":11159:11277   */\n      pop\n        /* \"#utility.yul\":11108:11277   */\n      swap3\n      swap2\n      pop\n      pop\n      jump\t// out\n        /* \"#utility.yul\":11282:11577   */\n    tag_82:\n        /* \"#utility.yul\":11358:11362   */\n      0x00\n        /* \"#utility.yul\":11504:11533   */\n      tag_206\n        /* \"#utility.yul\":11529:11532   */\n      dup4\n        /* \"#utility.yul\":11523:11527   */\n      dup4\n        /* \"#utility.yul\":11504:11533   */\n      tag_81\n      jump\t// in\n    tag_206:\n        /* \"#utility.yul\":11496:11533   */\n      swap2\n      pop\n        /* \"#utility.yul\":11566:11569   */\n      dup3\n        /* \"#utility.yul\":11563:11564   */\n      0x02\n        /* \"#utility.yul\":11559:11570   */\n      mul\n        /* \"#utility.yul\":11553:11557   */\n      dup3\n        /* \"#utility.yul\":11550:11571   */\n      or\n        /* \"#utility.yul\":11542:11571   */\n      swap1\n      pop\n        /* \"#utility.yul\":11282:11577   */\n      swap3\n      swap2\n      pop\n      pop\n      jump\t// out\n        /* \"#utility.yul\":11582:12977   */\n    tag_23:\n        /* \"#utility.yul\":11699:11736   */\n      tag_208\n        /* \"#utility.yul\":11732:11735   */\n      dup3\n        /* \"#utility.yul\":11699:11736   */\n      tag_58\n      jump\t// in\n    tag_208:\n        /* \"#utility.yul\":11801:11819   */\n      0xffffffffffffffff\n        /* \"#utility.yul\":11793:11799   */\n      dup2\n        /* \"#utility.yul\":11790:11820   */\n      gt\n        /* \"#utility.yul\":11787:11843   */\n      iszero\n      tag_209\n      jumpi\n        /* \"#utility.yul\":11823:11841   */\n      tag_210\n      tag_43\n      jump\t// in\n    tag_210:\n        /* \"#utility.yul\":11787:11843   */\n    tag_209:\n        /* \"#utility.yul\":11867:11905   */\n      tag_211\n        /* \"#utility.yul\":11899:11903   */\n      dup3\n        /* \"#utility.yul\":11893:11904   */\n      sload\n        /* \"#utility.yul\":11867:11905   */\n      tag_32\n      jump\t// in\n    tag_211:\n        /* \"#utility.yul\":11952:12019   */\n      tag_212\n        /* \"#utility.yul\":12012:12018   */\n      dup3\n        /* \"#utility.yul\":12004:12010   */\n      dup3\n        /* \"#utility.yul\":11998:12002   */\n      dup6\n        /* \"#utility.yul\":11952:12019   */\n      tag_79\n      jump\t// in\n    tag_212:\n        /* \"#utility.yul\":12046:12047   */\n      0x00\n        /* \"#utility.yul\":12070:12074   */\n      0x20\n        /* \"#utility.yul\":12057:12074   */\n      swap1\n      pop\n        /* \"#utility.yul\":12102:12104   */\n      0x1f\n        /* \"#utility.yul\":12094:12100   */\n      dup4\n        /* \"#utility.yul\":12091:12105   */\n      gt\n        /* \"#utility.yul\":12119:12120   */\n      0x01\n        /* \"#utility.yul\":12114:12732   */\n      dup2\n      eq\n      tag_214\n      jumpi\n        /* \"#utility.yul\":12776:12777   */\n      0x00\n        /* \"#utility.yul\":12793:12799   */\n      dup5\n        /* \"#utility.yul\":12790:12867   */\n      iszero\n      tag_215\n      jumpi\n        /* \"#utility.yul\":12842:12851   */\n      dup3\n        /* \"#utility.yul\":12837:12840   */\n      dup8\n        /* \"#utility.yul\":12833:12852   */\n      add\n        /* \"#utility.yul\":12827:12853   */\n      mload\n        /* \"#utility.yul\":12818:12853   */\n      swap1\n      pop\n        /* \"#utility.yul\":12790:12867   */\n    tag_215:\n        /* \"#utility.yul\":12893:12960   */\n      tag_216\n        /* \"#utility.yul\":12953:12959   */\n      dup6\n        /* \"#utility.yul\":12946:12951   */\n      dup3\n        /* \"#utility.yul\":12893:12960   */\n      tag_82\n      jump\t// in\n    tag_216:\n        /* \"#utility.yul\":12887:12891   */\n      dup7\n        /* \"#utility.yul\":12880:12961   */\n      sstore\n        /* \"#utility.yul\":12749:12971   */\n      pop\n        /* \"#utility.yul\":12084:12971   */\n      jump(tag_213)\n        /* \"#utility.yul\":12114:12732   */\n    tag_214:\n        /* \"#utility.yul\":12166:12170   */\n      0x1f\n        /* \"#utility.yul\":12162:12171   */\n      not\n        /* \"#utility.yul\":12154:12160   */\n      dup5\n        /* \"#utility.yul\":12150:12172   */\n      and\n        /* \"#utility.yul\":12200:12237   */\n      tag_217\n        /* \"#utility.yul\":12232:12236   */\n      dup7\n        /* \"#utility.yul\":12200:12237   */\n      tag_68\n      jump\t// in\n    tag_217:\n        /* \"#utility.yul\":12259:12260   */\n      0x00\n        /* \"#utility.yul\":12273:12481   */\n    tag_218:\n        /* \"#utility.yul\":12287:12294   */\n      dup3\n        /* \"#utility.yul\":12284:12285   */\n      dup2\n        /* \"#utility.yul\":12281:12295   */\n      lt\n        /* \"#utility.yul\":12273:12481   */\n      iszero\n      tag_220\n      jumpi\n        /* \"#utility.yul\":12366:12375   */\n      dup5\n        /* \"#utility.yul\":12361:12364   */\n      dup10\n        /* \"#utility.yul\":12357:12376   */\n      add\n        /* \"#utility.yul\":12351:12377   */\n      mload\n        /* \"#utility.yul\":12343:12349   */\n      dup3\n        /* \"#utility.yul\":12336:12378   */\n      sstore\n        /* \"#utility.yul\":12417:12418   */\n      0x01\n        /* \"#utility.yul\":12409:12415   */\n      dup3\n        /* \"#utility.yul\":12405:12419   */\n      add\n        /* \"#utility.yul\":12395:12419   */\n      swap2\n      pop\n        /* \"#utility.yul\":12464:12466   */\n      0x20\n        /* \"#utility.yul\":12453:12462   */\n      dup6\n        /* \"#utility.yul\":12449:12467   */\n      add\n        /* \"#utility.yul\":12436:12467   */\n      swap5\n      pop\n        /* \"#utility.yul\":12310:12314   */\n      0x20\n        /* \"#utility.yul\":12307:12308   */\n      dup2\n        /* \"#utility.yul\":12303:12315   */\n      add\n        /* \"#utility.yul\":12298:12315   */\n      swap1\n      pop\n        /* \"#utility.yul\":12273:12481   */\n      jump(tag_218)\n    tag_220:\n        /* \"#utility.yul\":12509:12515   */\n      dup7\n        /* \"#utility.yul\":12500:12507   */\n      dup4\n        /* \"#utility.yul\":12497:12516   */\n      lt\n        /* \"#utility.yul\":12494:12673   */\n      iszero\n      tag_221\n      jumpi\n        /* \"#utility.yul\":12567:12576   */\n      dup5\n        /* \"#utility.yul\":12562:12565   */\n      dup10\n        /* \"#utility.yul\":12558:12577   */\n      add\n        /* \"#utility.yul\":12552:12578   */\n      mload\n        /* \"#utility.yul\":12610:12658   */\n      tag_222\n        /* \"#utility.yul\":12652:12656   */\n      0x1f\n        /* \"#utility.yul\":12644:12650   */\n      dup10\n        /* \"#utility.yul\":12640:12657   */\n      and\n        /* \"#utility.yul\":12629:12638   */\n      dup3\n        /* \"#utility.yul\":12610:12658   */\n      tag_81\n      jump\t// in\n    tag_222:\n        /* \"#utility.yul\":12602:12608   */\n      dup4\n        /* \"#utility.yul\":12595:12659   */\n      sstore\n        /* \"#utility.yul\":12517:12673   */\n      pop\n        /* \"#utility.yul\":12494:12673   */\n    tag_221:\n        /* \"#utility.yul\":12719:12720   */\n      0x01\n        /* \"#utility.yul\":12715:12716   */\n      0x02\n        /* \"#utility.yul\":12707:12713   */\n      dup9\n        /* \"#utility.yul\":12703:12717   */\n      mul\n        /* \"#utility.yul\":12699:12721   */\n      add\n        /* \"#utility.yul\":12693:12697   */\n      dup9\n        /* \"#utility.yul\":12686:12722   */\n      sstore\n        /* \"#utility.yul\":12121:12732   */\n      pop\n      pop\n      pop\n        /* \"#utility.yul\":12084:12971   */\n    tag_213:\n      pop\n        /* \"#utility.yul\":11674:12977   */\n      pop\n      pop\n      pop\n        /* \"#utility.yul\":11582:12977   */\n      pop\n      pop\n      jump\t// out\n        /* \"#utility.yul\":12983:13152   */\n    tag_83:\n        /* \"#utility.yul\":13067:13078   */\n      0x00\n        /* \"#utility.yul\":13101:13107   */\n      dup3\n        /* \"#utility.yul\":13096:13099   */\n      dup3\n        /* \"#utility.yul\":13089:13108   */\n      mstore\n        /* \"#utility.yul\":13141:13145   */\n      0x20\n        /* \"#utility.yul\":13136:13139   */\n      dup3\n        /* \"#utility.yul\":13132:13146   */\n      add\n        /* \"#utility.yul\":13117:13146   */\n      swap1\n      pop\n        /* \"#utility.yul\":12983:13152   */\n      swap3\n      swap2\n      pop\n      pop\n      jump\t// out\n        /* \"#utility.yul\":13158:13535   */\n    tag_84:\n        /* \"#utility.yul\":13246:13249   */\n      0x00\n        /* \"#utility.yul\":13274:13313   */\n      tag_225\n        /* \"#utility.yul\":13307:13312   */\n      dup3\n        /* \"#utility.yul\":13274:13313   */\n      tag_58\n      jump\t// in\n    tag_225:\n        /* \"#utility.yul\":13329:13400   */\n      tag_226\n        /* \"#utility.yul\":13393:13399   */\n      dup2\n        /* \"#utility.yul\":13388:13391   */\n      dup6\n        /* \"#utility.yul\":13329:13400   */\n      tag_83\n      jump\t// in\n    tag_226:\n        /* \"#utility.yul\":13322:13400   */\n      swap4\n      pop\n        /* \"#utility.yul\":13409:13474   */\n      tag_227\n        /* \"#utility.yul\":13467:13473   */\n      dup2\n        /* \"#utility.yul\":13462:13465   */\n      dup6\n        /* \"#utility.yul\":13455:13459   */\n      0x20\n        /* \"#utility.yul\":13448:13453   */\n      dup7\n        /* \"#utility.yul\":13444:13460   */\n      add\n        /* \"#utility.yul\":13409:13474   */\n      tag_60\n      jump\t// in\n    tag_227:\n        /* \"#utility.yul\":13499:13528   */\n      tag_228\n        /* \"#utility.yul\":13521:13527   */\n      dup2\n        /* \"#utility.yul\":13499:13528   */\n      tag_42\n      jump\t// in\n    tag_228:\n        /* \"#utility.yul\":13494:13497   */\n      dup5\n        /* \"#utility.yul\":13490:13529   */\n      add\n        /* \"#utility.yul\":13483:13529   */\n      swap2\n      pop\n        /* \"#utility.yul\":13250:13535   */\n      pop\n        /* \"#utility.yul\":13158:13535   */\n      swap3\n      swap2\n      pop\n      pop\n      jump\t// out\n        /* \"#utility.yul\":13541:13854   */\n    tag_25:\n        /* \"#utility.yul\":13654:13658   */\n      0x00\n        /* \"#utility.yul\":13692:13694   */\n      0x20\n        /* \"#utility.yul\":13681:13690   */\n      dup3\n        /* \"#utility.yul\":13677:13695   */\n      add\n        /* \"#utility.yul\":13669:13695   */\n      swap1\n      pop\n        /* \"#utility.yul\":13741:13750   */\n      dup2\n        /* \"#utility.yul\":13735:13739   */\n      dup2\n        /* \"#utility.yul\":13731:13751   */\n      sub\n        /* \"#utility.yul\":13727:13728   */\n      0x00\n        /* \"#utility.yul\":13716:13725   */\n      dup4\n        /* \"#utility.yul\":13712:13729   */\n      add\n        /* \"#utility.yul\":13705:13752   */\n      mstore\n        /* \"#utility.yul\":13769:13847   */\n      tag_230\n        /* \"#utility.yul\":13842:13846   */\n      dup2\n        /* \"#utility.yul\":13833:13839   */\n      dup5\n        /* \"#utility.yul\":13769:13847   */\n      tag_84\n      jump\t// in\n    tag_230:\n        /* \"#utility.yul\":13761:13847   */\n      swap1\n      pop\n        /* \"#utility.yul\":13541:13854   */\n      swap3\n      swap2\n      pop\n      pop\n      jump\t// out\n\n    auxdata: 0xa2646970667358221220e62cceb3c19b8df770a234e071d589b1444014384ae561db3497111df1dd442064736f6c63430008190033\n}\n",
				"bytecode": {
					"linkReferences": {},
					"object": "6080604052348015600e575f80fd5b50610a3b8061001c5f395ff3fe608060405234801561000f575f80fd5b506004361061003f575f3560e01c8063449d46c0146100435780639a2cdc081461005f578063a9d42f7e1461007d575b5f80fd5b61005d60048036038101906100589190610448565b61009b565b005b6100676101b3565b60405161007491906104a7565b60405180910390f35b6100856101bb565b6040516100929190610654565b60405180910390f35b60015f808282546100ac91906106a1565b92505081905550600160405180604001604052803373ffffffffffffffffffffffffffffffffffffffff16815260200183815250908060018154018082558091505060019003905f5260205f2090600202015f909190919091505f820151815f015f6101000a81548173ffffffffffffffffffffffffffffffffffffffff021916908373ffffffffffffffffffffffffffffffffffffffff160217905550602082015181600101908161015f91906108ce565b5050503373ffffffffffffffffffffffffffffffffffffffff167fc8c0ec36e816f76593f2a64d116dc29d017ef338939501f124fa3c5d82de72bb826040516101a891906109e5565b60405180910390a250565b5f8054905090565b60606001805480602002602001604051908101604052809291908181526020015f905b828210156102f2578382905f5260205f2090600202016040518060400160405290815f82015f9054906101000a900473ffffffffffffffffffffffffffffffffffffffff1673ffffffffffffffffffffffffffffffffffffffff1673ffffffffffffffffffffffffffffffffffffffff16815260200160018201805461026390610701565b80601f016020809104026020016040519081016040528092919081815260200182805461028f90610701565b80156102da5780601f106102b1576101008083540402835291602001916102da565b820191905f5260205f20905b8154815290600101906020018083116102bd57829003601f168201915b505050505081525050815260200190600101906101de565b50505050905090565b5f604051905090565b5f80fd5b5f80fd5b5f80fd5b5f80fd5b5f601f19601f8301169050919050565b7f4e487b71000000000000000000000000000000000000000000000000000000005f52604160045260245ffd5b61035a82610314565b810181811067ffffffffffffffff8211171561037957610378610324565b5b80604052505050565b5f61038b6102fb565b90506103978282610351565b919050565b5f67ffffffffffffffff8211156103b6576103b5610324565b5b6103bf82610314565b9050602081019050919050565b828183375f83830152505050565b5f6103ec6103e78461039c565b610382565b90508281526020810184848401111561040857610407610310565b5b6104138482856103cc565b509392505050565b5f82601f83011261042f5761042e61030c565b5b813561043f8482602086016103da565b91505092915050565b5f6020828403121561045d5761045c610304565b5b5f82013567ffffffffffffffff81111561047a57610479610308565b5b6104868482850161041b565b91505092915050565b5f819050919050565b6104a18161048f565b82525050565b5f6020820190506104ba5f830184610498565b92915050565b5f81519050919050565b5f82825260208201905092915050565b5f819050602082019050919050565b5f73ffffffffffffffffffffffffffffffffffffffff82169050919050565b5f610512826104e9565b9050919050565b61052281610508565b82525050565b5f81519050919050565b5f82825260208201905092915050565b8281835e5f83830152505050565b5f61055a82610528565b6105648185610532565b9350610574818560208601610542565b61057d81610314565b840191505092915050565b5f604083015f83015161059d5f860182610519565b50602083015184820360208601526105b58282610550565b9150508091505092915050565b5f6105cd8383610588565b905092915050565b5f602082019050919050565b5f6105eb826104c0565b6105f581856104ca565b935083602082028501610607856104da565b805f5b85811015610642578484038952815161062385826105c2565b945061062e836105d5565b925060208a0199505060018101905061060a565b50829750879550505050505092915050565b5f6020820190508181035f83015261066c81846105e1565b905092915050565b7f4e487b71000000000000000000000000000000000000000000000000000000005f52601160045260245ffd5b5f6106ab8261048f565b91506106b68361048f565b92508282019050808211156106ce576106cd610674565b5b92915050565b7f4e487b71000000000000000000000000000000000000000000000000000000005f52602260045260245ffd5b5f600282049050600182168061071857607f821691505b60208210810361072b5761072a6106d4565b5b50919050565b5f819050815f5260205f209050919050565b5f6020601f8301049050919050565b5f82821b905092915050565b5f6008830261078d7fffffffffffffffffffffffffffffffffffffffffffffffffffffffffffffffff82610752565b6107978683610752565b95508019841693508086168417925050509392505050565b5f819050919050565b5f6107d26107cd6107c88461048f565b6107af565b61048f565b9050919050565b5f819050919050565b6107eb836107b8565b6107ff6107f7826107d9565b84845461075e565b825550505050565b5f90565b610813610807565b61081e8184846107e2565b505050565b5b81811015610841576108365f8261080b565b600181019050610824565b5050565b601f8211156108865761085781610731565b61086084610743565b8101602085101561086f578190505b61088361087b85610743565b830182610823565b50505b505050565b5f82821c905092915050565b5f6108a65f198460080261088b565b1980831691505092915050565b5f6108be8383610897565b9150826002028217905092915050565b6108d782610528565b67ffffffffffffffff8111156108f0576108ef610324565b5b6108fa8254610701565b610905828285610845565b5f60209050601f831160018114610936575f8415610924578287015190505b61092e85826108b3565b865550610995565b601f19841661094486610731565b5f5b8281101561096b57848901518255600182019150602085019450602081019050610946565b868310156109885784890151610984601f891682610897565b8355505b6001600288020188555050505b505050505050565b5f82825260208201905092915050565b5f6109b782610528565b6109c1818561099d565b93506109d1818560208601610542565b6109da81610314565b840191505092915050565b5f6020820190508181035f8301526109fd81846109ad565b90509291505056fea2646970667358221220e62cceb3c19b8df770a234e071d589b1444014384ae561db3497111df1dd442064736f6c63430008190033",
					"opcodes": "PUSH1 0x80 PUSH1 0x40 MSTORE CALLVALUE DUP1 ISZERO PUSH1 0xE JUMPI PUSH0 DUP1 REVERT JUMPDEST POP PUSH2 0xA3B DUP1 PUSH2 0x1C PUSH0 CODECOPY PUSH0 RETURN INVALID PUSH1 0x80 PUSH1 0x40 MSTORE CALLVALUE DUP1 ISZERO PUSH2 0xF JUMPI PUSH0 DUP1 REVERT JUMPDEST POP PUSH1 0x4 CALLDATASIZE LT PUSH2 0x3F JUMPI PUSH0 CALLDATALOAD PUSH1 0xE0 SHR DUP1 PUSH4 0x449D46C0 EQ PUSH2 0x43 JUMPI DUP1 PUSH4 0x9A2CDC08 EQ PUSH2 0x5F JUMPI DUP1 PUSH4 0xA9D42F7E EQ PUSH2 0x7D JUMPI JUMPDEST PUSH0 DUP1 REVERT JUMPDEST PUSH2 0x5D PUSH1 0x4 DUP1 CALLDATASIZE SUB DUP2 ADD SWAP1 PUSH2 0x58 SWAP2 SWAP1 PUSH2 0x448 JUMP JUMPDEST PUSH2 0x9B JUMP JUMPDEST STOP JUMPDEST PUSH2 0x67 PUSH2 0x1B3 JUMP JUMPDEST PUSH1 0x40 MLOAD PUSH2 0x74 SWAP2 SWAP1 PUSH2 0x4A7 JUMP JUMPDEST PUSH1 0x40 MLOAD DUP1 SWAP2 SUB SWAP1 RETURN JUMPDEST PUSH2 0x85 PUSH2 0x1BB JUMP JUMPDEST PUSH1 0x40 MLOAD PUSH2 0x92 SWAP2 SWAP1 PUSH2 0x654 JUMP JUMPDEST PUSH1 0x40 MLOAD DUP1 SWAP2 SUB SWAP1 RETURN JUMPDEST PUSH1 0x1 PUSH0 DUP1 DUP3 DUP3 SLOAD PUSH2 0xAC SWAP2 SWAP1 PUSH2 0x6A1 JUMP JUMPDEST SWAP3 POP POP DUP2 SWAP1 SSTORE POP PUSH1 0x1 PUSH1 0x40 MLOAD DUP1 PUSH1 0x40 ADD PUSH1 0x40 MSTORE DUP1 CALLER PUSH20 0xFFFFFFFFFFFFFFFFFFFFFFFFFFFFFFFFFFFFFFFF AND DUP2 MSTORE PUSH1 0x20 ADD DUP4 DUP2 MSTORE POP SWAP1 DUP1 PUSH1 0x1 DUP2 SLOAD ADD DUP1 DUP3 SSTORE DUP1 SWAP2 POP POP PUSH1 0x1 SWAP1 SUB SWAP1 PUSH0 MSTORE PUSH1 0x20 PUSH0 KECCAK256 SWAP1 PUSH1 0x2 MUL ADD PUSH0 SWAP1 SWAP2 SWAP1 SWAP2 SWAP1 SWAP2 POP PUSH0 DUP3 ADD MLOAD DUP2 PUSH0 ADD PUSH0 PUSH2 0x100 EXP DUP2 SLOAD DUP2 PUSH20 0xFFFFFFFFFFFFFFFFFFFFFFFFFFFFFFFFFFFFFFFF MUL NOT AND SWAP1 DUP4 PUSH20 0xFFFFFFFFFFFFFFFFFFFFFFFFFFFFFFFFFFFFFFFF AND MUL OR SWAP1 SSTORE POP PUSH1 0x20 DUP3 ADD MLOAD DUP2 PUSH1 0x1 ADD SWAP1 DUP2 PUSH2 0x15F SWAP2 SWAP1 PUSH2 0x8CE JUMP JUMPDEST POP POP POP CALLER PUSH20 0xFFFFFFFFFFFFFFFFFFFFFFFFFFFFFFFFFFFFFFFF AND PUSH32 0xC8C0EC36E816F76593F2A64D116DC29D017EF338939501F124FA3C5D82DE72BB DUP3 PUSH1 0x40 MLOAD PUSH2 0x1A8 SWAP2 SWAP1 PUSH2 0x9E5 JUMP JUMPDEST PUSH1 0x40 MLOAD DUP1 SWAP2 SUB SWAP1 LOG2 POP JUMP JUMPDEST PUSH0 DUP1 SLOAD SWAP1 POP SWAP1 JUMP JUMPDEST PUSH1 0x60 PUSH1 0x1 DUP1 SLOAD DUP1 PUSH1 0x20 MUL PUSH1 0x20 ADD PUSH1 0x40 MLOAD SWAP1 DUP2 ADD PUSH1 0x40 MSTORE DUP1 SWAP3 SWAP2 SWAP1 DUP2 DUP2 MSTORE PUSH1 0x20 ADD PUSH0 SWAP1 JUMPDEST DUP3 DUP3 LT ISZERO PUSH2 0x2F2 JUMPI DUP4 DUP3 SWAP1 PUSH0 MSTORE PUSH1 0x20 PUSH0 KECCAK256 SWAP1 PUSH1 0x2 MUL ADD PUSH1 0x40 MLOAD DUP1 PUSH1 0x40 ADD PUSH1 0x40 MSTORE SWAP1 DUP2 PUSH0 DUP3 ADD PUSH0 SWAP1 SLOAD SWAP1 PUSH2 0x100 EXP SWAP1 DIV PUSH20 0xFFFFFFFFFFFFFFFFFFFFFFFFFFFFFFFFFFFFFFFF AND PUSH20 0xFFFFFFFFFFFFFFFFFFFFFFFFFFFFFFFFFFFFFFFF AND PUSH20 0xFFFFFFFFFFFFFFFFFFFFFFFFFFFFFFFFFFFFFFFF AND DUP2 MSTORE PUSH1 0x20 ADD PUSH1 0x1 DUP3 ADD DUP1 SLOAD PUSH2 0x263 SWAP1 PUSH2 0x701 JUMP JUMPDEST DUP1 PUSH1 0x1F ADD PUSH1 0x20 DUP1 SWAP2 DIV MUL PUSH1 0x20 ADD PUSH1 0x40 MLOAD SWAP1 DUP2 ADD PUSH1 0x40 MSTORE DUP1 SWAP3 SWAP2 SWAP1 DUP2 DUP2 MSTORE PUSH1 0x20 ADD DUP3 DUP1 SLOAD PUSH2 0x28F SWAP1 PUSH2 0x701 JUMP JUMPDEST DUP1 ISZERO PUSH2 0x2DA JUMPI DUP1 PUSH1 0x1F LT PUSH2 0x2B1 JUMPI PUSH2 0x100 DUP1 DUP4 SLOAD DIV MUL DUP4 MSTORE SWAP2 PUSH1 0x20 ADD SWAP2 PUSH2 0x2DA JUMP JUMPDEST DUP3 ADD SWAP2 SWAP1 PUSH0 MSTORE PUSH1 0x20 PUSH0 KECCAK256 SWAP1 JUMPDEST DUP2 SLOAD DUP2 MSTORE SWAP1 PUSH1 0x1 ADD SWAP1 PUSH1 0x20 ADD DUP1 DUP4 GT PUSH2 0x2BD JUMPI DUP3 SWAP1 SUB PUSH1 0x1F AND DUP3 ADD SWAP2 JUMPDEST POP POP POP POP POP DUP2 MSTORE POP POP DUP2 MSTORE PUSH1 0x20 ADD SWAP1 PUSH1 0x1 ADD SWAP1 PUSH2 0x1DE JUMP JUMPDEST POP POP POP POP SWAP1 POP SWAP1 JUMP JUMPDEST PUSH0 PUSH1 0x40 MLOAD SWAP1 POP SWAP1 JUMP JUMPDEST PUSH0 DUP1 REVERT JUMPDEST PUSH0 DUP1 REVERT JUMPDEST PUSH0 DUP1 REVERT JUMPDEST PUSH0 DUP1 REVERT JUMPDEST PUSH0 PUSH1 0x1F NOT PUSH1 0x1F DUP4 ADD AND SWAP1 POP SWAP2 SWAP1 POP JUMP JUMPDEST PUSH32 0x4E487B7100000000000000000000000000000000000000000000000000000000 PUSH0 MSTORE PUSH1 0x41 PUSH1 0x4 MSTORE PUSH1 0x24 PUSH0 REVERT JUMPDEST PUSH2 0x35A DUP3 PUSH2 0x314 JUMP JUMPDEST DUP2 ADD DUP2 DUP2 LT PUSH8 0xFFFFFFFFFFFFFFFF DUP3 GT OR ISZERO PUSH2 0x379 JUMPI PUSH2 0x378 PUSH2 0x324 JUMP JUMPDEST JUMPDEST DUP1 PUSH1 0x40 MSTORE POP POP POP JUMP JUMPDEST PUSH0 PUSH2 0x38B PUSH2 0x2FB JUMP JUMPDEST SWAP1 POP PUSH2 0x397 DUP3 DUP3 PUSH2 0x351 JUMP JUMPDEST SWAP2 SWAP1 POP JUMP JUMPDEST PUSH0 PUSH8 0xFFFFFFFFFFFFFFFF DUP3 GT ISZERO PUSH2 0x3B6 JUMPI PUSH2 0x3B5 PUSH2 0x324 JUMP JUMPDEST JUMPDEST PUSH2 0x3BF DUP3 PUSH2 0x314 JUMP JUMPDEST SWAP1 POP PUSH1 0x20 DUP2 ADD SWAP1 POP SWAP2 SWAP1 POP JUMP JUMPDEST DUP3 DUP2 DUP4 CALLDATACOPY PUSH0 DUP4 DUP4 ADD MSTORE POP POP POP JUMP JUMPDEST PUSH0 PUSH2 0x3EC PUSH2 0x3E7 DUP5 PUSH2 0x39C JUMP JUMPDEST PUSH2 0x382 JUMP JUMPDEST SWAP1 POP DUP3 DUP2 MSTORE PUSH1 0x20 DUP2 ADD DUP5 DUP5 DUP5 ADD GT ISZERO PUSH2 0x408 JUMPI PUSH2 0x407 PUSH2 0x310 JUMP JUMPDEST JUMPDEST PUSH2 0x413 DUP5 DUP3 DUP6 PUSH2 0x3CC JUMP JUMPDEST POP SWAP4 SWAP3 POP POP POP JUMP JUMPDEST PUSH0 DUP3 PUSH1 0x1F DUP4 ADD SLT PUSH2 0x42F JUMPI PUSH2 0x42E PUSH2 0x30C JUMP JUMPDEST JUMPDEST DUP2 CALLDATALOAD PUSH2 0x43F DUP5 DUP3 PUSH1 0x20 DUP7 ADD PUSH2 0x3DA JUMP JUMPDEST SWAP2 POP POP SWAP3 SWAP2 POP POP JUMP JUMPDEST PUSH0 PUSH1 0x20 DUP3 DUP5 SUB SLT ISZERO PUSH2 0x45D JUMPI PUSH2 0x45C PUSH2 0x304 JUMP JUMPDEST JUMPDEST PUSH0 DUP3 ADD CALLDATALOAD PUSH8 0xFFFFFFFFFFFFFFFF DUP2 GT ISZERO PUSH2 0x47A JUMPI PUSH2 0x479 PUSH2 0x308 JUMP JUMPDEST JUMPDEST PUSH2 0x486 DUP5 DUP3 DUP6 ADD PUSH2 0x41B JUMP JUMPDEST SWAP2 POP POP SWAP3 SWAP2 POP POP JUMP JUMPDEST PUSH0 DUP2 SWAP1 POP SWAP2 SWAP1 POP JUMP JUMPDEST PUSH2 0x4A1 DUP2 PUSH2 0x48F JUMP JUMPDEST DUP3 MSTORE POP POP JUMP JUMPDEST PUSH0 PUSH1 0x20 DUP3 ADD SWAP1 POP PUSH2 0x4BA PUSH0 DUP4 ADD DUP5 PUSH2 0x498 JUMP JUMPDEST SWAP3 SWAP2 POP POP JUMP JUMPDEST PUSH0 DUP2 MLOAD SWAP1 POP SWAP2 SWAP1 POP JUMP JUMPDEST PUSH0 DUP3 DUP3 MSTORE PUSH1 0x20 DUP3 ADD SWAP1 POP SWAP3 SWAP2 POP POP JUMP JUMPDEST PUSH0 DUP2 SWAP1 POP PUSH1 0x20 DUP3 ADD SWAP1 POP SWAP2 SWAP1 POP JUMP JUMPDEST PUSH0 PUSH20 0xFFFFFFFFFFFFFFFFFFFFFFFFFFFFFFFFFFFFFFFF DUP3 AND SWAP1 POP SWAP2 SWAP1 POP JUMP JUMPDEST PUSH0 PUSH2 0x512 DUP3 PUSH2 0x4E9 JUMP JUMPDEST SWAP1 POP SWAP2 SWAP1 POP JUMP JUMPDEST PUSH2 0x522 DUP2 PUSH2 0x508 JUMP JUMPDEST DUP3 MSTORE POP POP JUMP JUMPDEST PUSH0 DUP2 MLOAD SWAP1 POP SWAP2 SWAP1 POP JUMP JUMPDEST PUSH0 DUP3 DUP3 MSTORE PUSH1 0x20 DUP3 ADD SWAP1 POP SWAP3 SWAP2 POP POP JUMP JUMPDEST DUP3 DUP2 DUP4 MCOPY PUSH0 DUP4 DUP4 ADD MSTORE POP POP POP JUMP JUMPDEST PUSH0 PUSH2 0x55A DUP3 PUSH2 0x528 JUMP JUMPDEST PUSH2 0x564 DUP2 DUP6 PUSH2 0x532 JUMP JUMPDEST SWAP4 POP PUSH2 0x574 DUP2 DUP6 PUSH1 0x20 DUP7 ADD PUSH2 0x542 JUMP JUMPDEST PUSH2 0x57D DUP2 PUSH2 0x314 JUMP JUMPDEST DUP5 ADD SWAP2 POP POP SWAP3 SWAP2 POP POP JUMP JUMPDEST PUSH0 PUSH1 0x40 DUP4 ADD PUSH0 DUP4 ADD MLOAD PUSH2 0x59D PUSH0 DUP7 ADD DUP3 PUSH2 0x519 JUMP JUMPDEST POP PUSH1 0x20 DUP4 ADD MLOAD DUP5 DUP3 SUB PUSH1 0x20 DUP7 ADD MSTORE PUSH2 0x5B5 DUP3 DUP3 PUSH2 0x550 JUMP JUMPDEST SWAP2 POP POP DUP1 SWAP2 POP POP SWAP3 SWAP2 POP POP JUMP JUMPDEST PUSH0 PUSH2 0x5CD DUP4 DUP4 PUSH2 0x588 JUMP JUMPDEST SWAP1 POP SWAP3 SWAP2 POP POP JUMP JUMPDEST PUSH0 PUSH1 0x20 DUP3 ADD SWAP1 POP SWAP2 SWAP1 POP JUMP JUMPDEST PUSH0 PUSH2 0x5EB DUP3 PUSH2 0x4C0 JUMP JUMPDEST PUSH2 0x5F5 DUP2 DUP6 PUSH2 0x4CA JUMP JUMPDEST SWAP4 POP DUP4 PUSH1 0x20 DUP3 MUL DUP6 ADD PUSH2 0x607 DUP6 PUSH2 0x4DA JUMP JUMPDEST DUP1 PUSH0 JUMPDEST DUP6 DUP2 LT ISZERO PUSH2 0x642 JUMPI DUP5 DUP5 SUB DUP10 MSTORE DUP2 MLOAD PUSH2 0x623 DUP6 DUP3 PUSH2 0x5C2 JUMP JUMPDEST SWAP5 POP PUSH2 0x62E DUP4 PUSH2 0x5D5 JUMP JUMPDEST SWAP3 POP PUSH1 0x20 DUP11 ADD SWAP10 POP POP PUSH1 0x1 DUP2 ADD SWAP1 POP PUSH2 0x60A JUMP JUMPDEST POP DUP3 SWAP8 POP DUP8 SWAP6 POP POP POP POP POP POP SWAP3 SWAP2 POP POP JUMP JUMPDEST PUSH0 PUSH1 0x20 DUP3 ADD SWAP1 POP DUP2 DUP2 SUB PUSH0 DUP4 ADD MSTORE PUSH2 0x66C DUP2 DUP5 PUSH2 0x5E1 JUMP JUMPDEST SWAP1 POP SWAP3 SWAP2 POP POP JUMP JUMPDEST PUSH32 0x4E487B7100000000000000000000000000000000000000000000000000000000 PUSH0 MSTORE PUSH1 0x11 PUSH1 0x4 MSTORE PUSH1 0x24 PUSH0 REVERT JUMPDEST PUSH0 PUSH2 0x6AB DUP3 PUSH2 0x48F JUMP JUMPDEST SWAP2 POP PUSH2 0x6B6 DUP4 PUSH2 0x48F JUMP JUMPDEST SWAP3 POP DUP3 DUP3 ADD SWAP1 POP DUP1 DUP3 GT ISZERO PUSH2 0x6CE JUMPI PUSH2 0x6CD PUSH2 0x674 JUMP JUMPDEST JUMPDEST SWAP3 SWAP2 POP POP JUMP JUMPDEST PUSH32 0x4E487B7100000000000000000000000000000000000000000000000000000000 PUSH0 MSTORE PUSH1 0x22 PUSH1 0x4 MSTORE PUSH1 0x24 PUSH0 REVERT JUMPDEST PUSH0 PUSH1 0x2 DUP3 DIV SWAP1 POP PUSH1 0x1 DUP3 AND DUP1 PUSH2 0x718 JUMPI PUSH1 0x7F DUP3 AND SWAP2 POP JUMPDEST PUSH1 0x20 DUP3 LT DUP2 SUB PUSH2 0x72B JUMPI PUSH2 0x72A PUSH2 0x6D4 JUMP JUMPDEST JUMPDEST POP SWAP2 SWAP1 POP JUMP JUMPDEST PUSH0 DUP2 SWAP1 POP DUP2 PUSH0 MSTORE PUSH1 0x20 PUSH0 KECCAK256 SWAP1 POP SWAP2 SWAP1 POP JUMP JUMPDEST PUSH0 PUSH1 0x20 PUSH1 0x1F DUP4 ADD DIV SWAP1 POP SWAP2 SWAP1 POP JUMP JUMPDEST PUSH0 DUP3 DUP3 SHL SWAP1 POP SWAP3 SWAP2 POP POP JUMP JUMPDEST PUSH0 PUSH1 0x8 DUP4 MUL PUSH2 0x78D PUSH32 0xFFFFFFFFFFFFFFFFFFFFFFFFFFFFFFFFFFFFFFFFFFFFFFFFFFFFFFFFFFFFFFFF DUP3 PUSH2 0x752 JUMP JUMPDEST PUSH2 0x797 DUP7 DUP4 PUSH2 0x752 JUMP JUMPDEST SWAP6 POP DUP1 NOT DUP5 AND SWAP4 POP DUP1 DUP7 AND DUP5 OR SWAP3 POP POP POP SWAP4 SWAP3 POP POP POP JUMP JUMPDEST PUSH0 DUP2 SWAP1 POP SWAP2 SWAP1 POP JUMP JUMPDEST PUSH0 PUSH2 0x7D2 PUSH2 0x7CD PUSH2 0x7C8 DUP5 PUSH2 0x48F JUMP JUMPDEST PUSH2 0x7AF JUMP JUMPDEST PUSH2 0x48F JUMP JUMPDEST SWAP1 POP SWAP2 SWAP1 POP JUMP JUMPDEST PUSH0 DUP2 SWAP1 POP SWAP2 SWAP1 POP JUMP JUMPDEST PUSH2 0x7EB DUP4 PUSH2 0x7B8 JUMP JUMPDEST PUSH2 0x7FF PUSH2 0x7F7 DUP3 PUSH2 0x7D9 JUMP JUMPDEST DUP5 DUP5 SLOAD PUSH2 0x75E JUMP JUMPDEST DUP3 SSTORE POP POP POP POP JUMP JUMPDEST PUSH0 SWAP1 JUMP JUMPDEST PUSH2 0x813 PUSH2 0x807 JUMP JUMPDEST PUSH2 0x81E DUP2 DUP5 DUP5 PUSH2 0x7E2 JUMP JUMPDEST POP POP POP JUMP JUMPDEST JUMPDEST DUP2 DUP2 LT ISZERO PUSH2 0x841 JUMPI PUSH2 0x836 PUSH0 DUP3 PUSH2 0x80B JUMP JUMPDEST PUSH1 0x1 DUP2 ADD SWAP1 POP PUSH2 0x824 JUMP JUMPDEST POP POP JUMP JUMPDEST PUSH1 0x1F DUP3 GT ISZERO PUSH2 0x886 JUMPI PUSH2 0x857 DUP2 PUSH2 0x731 JUMP JUMPDEST PUSH2 0x860 DUP5 PUSH2 0x743 JUMP JUMPDEST DUP2 ADD PUSH1 0x20 DUP6 LT ISZERO PUSH2 0x86F JUMPI DUP2 SWAP1 POP JUMPDEST PUSH2 0x883 PUSH2 0x87B DUP6 PUSH2 0x743 JUMP JUMPDEST DUP4 ADD DUP3 PUSH2 0x823 JUMP JUMPDEST POP POP JUMPDEST POP POP POP JUMP JUMPDEST PUSH0 DUP3 DUP3 SHR SWAP1 POP SWAP3 SWAP2 POP POP JUMP JUMPDEST PUSH0 PUSH2 0x8A6 PUSH0 NOT DUP5 PUSH1 0x8 MUL PUSH2 0x88B JUMP JUMPDEST NOT DUP1 DUP4 AND SWAP2 POP POP SWAP3 SWAP2 POP POP JUMP JUMPDEST PUSH0 PUSH2 0x8BE DUP4 DUP4 PUSH2 0x897 JUMP JUMPDEST SWAP2 POP DUP3 PUSH1 0x2 MUL DUP3 OR SWAP1 POP SWAP3 SWAP2 POP POP JUMP JUMPDEST PUSH2 0x8D7 DUP3 PUSH2 0x528 JUMP JUMPDEST PUSH8 0xFFFFFFFFFFFFFFFF DUP2 GT ISZERO PUSH2 0x8F0 JUMPI PUSH2 0x8EF PUSH2 0x324 JUMP JUMPDEST JUMPDEST PUSH2 0x8FA DUP3 SLOAD PUSH2 0x701 JUMP JUMPDEST PUSH2 0x905 DUP3 DUP3 DUP6 PUSH2 0x845 JUMP JUMPDEST PUSH0 PUSH1 0x20 SWAP1 POP PUSH1 0x1F DUP4 GT PUSH1 0x1 DUP2 EQ PUSH2 0x936 JUMPI PUSH0 DUP5 ISZERO PUSH2 0x924 JUMPI DUP3 DUP8 ADD MLOAD SWAP1 POP JUMPDEST PUSH2 0x92E DUP6 DUP3 PUSH2 0x8B3 JUMP JUMPDEST DUP7 SSTORE POP PUSH2 0x995 JUMP JUMPDEST PUSH1 0x1F NOT DUP5 AND PUSH2 0x944 DUP7 PUSH2 0x731 JUMP JUMPDEST PUSH0 JUMPDEST DUP3 DUP2 LT ISZERO PUSH2 0x96B JUMPI DUP5 DUP10 ADD MLOAD DUP3 SSTORE PUSH1 0x1 DUP3 ADD SWAP2 POP PUSH1 0x20 DUP6 ADD SWAP5 POP PUSH1 0x20 DUP2 ADD SWAP1 POP PUSH2 0x946 JUMP JUMPDEST DUP7 DUP4 LT ISZERO PUSH2 0x988 JUMPI DUP5 DUP10 ADD MLOAD PUSH2 0x984 PUSH1 0x1F DUP10 AND DUP3 PUSH2 0x897 JUMP JUMPDEST DUP4 SSTORE POP JUMPDEST PUSH1 0x1 PUSH1 0x2 DUP9 MUL ADD DUP9 SSTORE POP POP POP JUMPDEST POP POP POP POP POP POP JUMP JUMPDEST PUSH0 DUP3 DUP3 MSTORE PUSH1 0x20 DUP3 ADD SWAP1 POP SWAP3 SWAP2 POP POP JUMP JUMPDEST PUSH0 PUSH2 0x9B7 DUP3 PUSH2 0x528 JUMP JUMPDEST PUSH2 0x9C1 DUP2 DUP6 PUSH2 0x99D JUMP JUMPDEST SWAP4 POP PUSH2 0x9D1 DUP2 DUP6 PUSH1 0x20 DUP7 ADD PUSH2 0x542 JUMP JUMPDEST PUSH2 0x9DA DUP2 PUSH2 0x314 JUMP JUMPDEST DUP5 ADD SWAP2 POP POP SWAP3 SWAP2 POP POP JUMP JUMPDEST PUSH0 PUSH1 0x20 DUP3 ADD SWAP1 POP DUP2 DUP2 SUB PUSH0 DUP4 ADD MSTORE PUSH2 0x9FD DUP2 DUP5 PUSH2 0x9AD JUMP JUMPDEST SWAP1 POP SWAP3 SWAP2 POP POP JUMP INVALID LOG2 PUSH5 0x6970667358 0x22 SLT KECCAK256 0xE6 0x2C 0xCE 0xB3 0xC1 SWAP12 DUP14 0xF7 PUSH17 0xA234E071D589B1444014384AE561DB3497 GT SAR CALL 0xDD PREVRANDAO KECCAK256 PUSH5 0x736F6C6343 STOP ADDMOD NOT STOP CALLER "
				},
				"gasEstimates": {
					"creation": {
						"codeDepositCost": "523800",
						"executionCost": "554",
						"totalCost": "524354"
					},
					"external": {
						"getTotalWaves()": "2432",
						"getWaves()": "infinite",
						"wave(string)": "infinite"
					}
				},
				"methodIdentifiers": {
					"getTotalWaves()": "9a2cdc08",
					"getWaves()": "a9d42f7e",
					"wave(string)": "449d46c0"
				}
			},
			"storageLayout": {
				"storage": [
					{
						"astId": 3,
						"contract": "BCT/assign 2a/assign2a.sol:WavePortal",
						"label": "totalWaves",
						"offset": 0,
						"slot": "0",
						"type": "t_uint256"
					},
					{
						"astId": 12,
						"contract": "BCT/assign 2a/assign2a.sol:WavePortal",
						"label": "waves",
						"offset": 0,
						"slot": "1",
						"type": "t_array(t_struct(Wave)8_storage)dyn_storage"
					}
				],
				"types": {
					"t_address": {
						"encoding": "inplace",
						"label": "address",
						"numberOfBytes": "20"
					},
					"t_array(t_struct(Wave)8_storage)dyn_storage": {
						"base": "t_struct(Wave)8_storage",
						"encoding": "dynamic_array",
						"label": "struct WavePortal.Wave[]",
						"numberOfBytes": "32"
					},
					"t_string_storage": {
						"encoding": "bytes",
						"label": "string",
						"numberOfBytes": "32"
					},
					"t_struct(Wave)8_storage": {
						"encoding": "inplace",
						"label": "struct WavePortal.Wave",
						"members": [
							{
								"astId": 5,
								"contract": "BCT/assign 2a/assign2a.sol:WavePortal",
								"label": "sender",
								"offset": 0,
								"slot": "0",
								"type": "t_address"
							},
							{
								"astId": 7,
								"contract": "BCT/assign 2a/assign2a.sol:WavePortal",
								"label": "message",
								"offset": 0,
								"slot": "1",
								"type": "t_string_storage"
							}
						],
						"numberOfBytes": "64"
					},
					"t_uint256": {
						"encoding": "inplace",
						"label": "uint256",
						"numberOfBytes": "32"
					}
				}
			},
			"userdoc": {
				"kind": "user",
				"methods": {},
				"version": 1
			}
		}
	}
}